:020000040800F2
:10000000C84D0020E1010008E1280008792100081E
:10001000DD28000835140008312E0008000000001B
:10002000000000000000000000000000490100087E
:1000300019200008000000008D010008552C000860
:10004000FB010008FB010008FB010008FB010008A0
:10005000FB010008FB010008FB010008FB01000890
:10006000FB010008FB010008FB010008FB01000880
:10007000FB010008FB010008FB010008FB01000870
:10008000FB010008FB010008FB010008FB01000860
:10009000B52D0008FB010008FB010008FB0100086A
:1000A000FB010008FB010008FB010008FB01000840
:1000B000FB010008FB010008FB010008FB01000830
:1000C000FB010008FB010008FB010008FB01000820
:1000D000FB010008FB010008FB010008FB01000810
:1000E000FB010008FB010008FB010008FB01000800
:1000F000FB010008FB010008FB010008FB010008F0
:10010000FB010008FB010008FB010008FB010008DF
:10011000FB010008FB010008FB010008FB010008CF
:10012000FB010008FB010008FB010008FB010008BF
:10013000DFF810D000F074FC004800473D40000894
:10014000AFF30080C84D0020224B19680868B0E862
:10015000F00F80F30988BFF36F8F4FF0000080F33A
:1001600011884EF00D0E7047000000000648006830
:10017000006880F3088862B661B6BFF34F8FBFF3A3
:100180006F8F00DF00BF00BF08ED00E0EFF30980D4
:10019000BFF36F8F0F4B1A6820E9F00F106008B59E
:1001A0004FF0BF0080F31188BFF34F8FBFF36F8F05
:1001B00004F098FF4FF0000080F31188BDE808407C
:1001C00019680868B0E8F00F80F30988BFF36F8FF3
:1001D000704700BFF4000020EFF305807047000077
:1001E0000648804706480047FEE7FEE7FEE7FEE7D1
:1001F000FEE7FEE7FEE7FEE7FEE7FEE7652C000808
:100200003101000840EA01039B0703D009E008C957
:10021000121F08C0042AFAD203E011F8013B00F8CB
:10022000013B521EF9D27047D2B201E000F8012B17
:10023000491EFBD270470022F6E710B513460A4666
:1002400004461946FFF7F0FF204610BD80EA010280
:1002500010B502F00043400022D04A001FD0010E2A
:1002600001EB1261C0F35600C2F3560240F40000E5
:1002700042F40002A0FB022000047F39140400D0E5
:10028000401C50EA124001D44000491EC2B20C0684
:1002900004EBD010401C4008802A02D003E000206C
:1002A00010BD20F00100002900DA0020184310BD25
:1002B00030B480EA010202F0004530F0004221F043
:1002C000004013D090B1C30DD40DC2F31601C0F39A
:1002D0001600E41A41F4000140F400027D3491421A
:1002E00001D3641C00E04900002C02DA30BC00207D
:1002F00070474FF400000023914201D3891A034351
:1003000040084FEA4101F7D151B1914202D14FF07B
:10031000004105E002D24FF0010101E06FF0010160
:1003200003EBC450284430BC00F0CEBA2DE9FE4F98
:10033000804681EA0300C00F0C46009021F0004186
:1003400023F00045B8EB0200A94105D24046214602
:1003500090461C460B46024623F00040104347D00F
:10036000270DC7F30A00C3F30A510290401A019007
:1003700040286BDAC3F3130040F4801B00989246C8
:1003800020B10023D2EB030A63EB0B0B0198594613
:10039000C0F14002504600F066FA06460D4650464F
:1003A0005946019A00F07EFA10EB080061410024E2
:1003B00087EA115284EAE7731A4340D0009A62B385
:1003C000019A012A4FEA075215DC001B61EB02017A
:1003D0004FF0004202EA0752CDE90042001C41F50D
:1003E000801132462B4600F0B5FA03B0BDE8F08F1D
:1003F00040462146F9E7001B61EB0201001C41F574
:10040000801300185B412018A2F5001747EB030189
:1004100040EAD570B6196D4111E06D084FEA360615
:1004200045EAC0754FEA0752001B61EB0201001C50
:1004300041F5801149084FEA300000195141324618
:100440002B4603B0BDE8F04F00F075BA00980122CA
:1004500040000023D0EB020263EBE07300982146DA
:100460004FEAE074B8EB000061EB0401E9E783F0C8
:1004700000435BE781F0004158E72DE9FE4F81EA38
:10048000030404F0004421F0004100944FF0000BFD
:1004900023F0004350EA01045ED052EA03045BD02B
:1004A000C3F30A54C1F30A552C44A4F2F334019463
:1004B000A0FB0254C1F3130141F48011C3F31303F1
:1004C00043F4801301FB024400FB034E840A970AA5
:1004D00044EA815447EA8357A4FB076802958D0AD2
:1004E00005FB07854FEA932C04FB0C542705029D5E
:1004F0004FEA065847EA1637B5EB08056EEB070CCE
:10050000870E920E47EA811742EA8312A7FB020187
:10051000B6EB0B0164EB00042B0D43EA0C335E18C1
:1005200044EB1C50DA465146E7FB0201C5F31304C5
:100530004FEA0B3343EA14534FEA0432019C43EA77
:100540000603A4F10C040294009CCDE900B400F071
:1005500001FA03B0BDE8F08F00200146F9E72DE96C
:10056000F04D81EA030404F0004B21F000451446ED
:100570004FF0000A23F0004150EA050220D054EA6F
:1005800001021DD0C5F30A570246C5F31303C1F398
:100590001300C1F30A5640F4801543F48013A7EB0F
:1005A0000608101BD64608F2FD3873EB050002D38F
:1005B00008F1010801E092185B41B8F1000F03DA7D
:1005C00000200146BDE8F08D00204FF48011064662
:1005D00084460EE0171B73EB050705D3121B63EB74
:1005E000050306434CEA010C49084FEA3000921813
:1005F0005B4150EA0107EDD152EA030012D082EAD2
:10060000040083EA0501084305D0101BAB4106D264
:100610000122002306E000224FF0004302E06FF0C9
:10062000010253101AEB06004CEB085110EB0A00C4
:1006300041EB0B01BDE8F04D00F07DB9C10F80EA40
:10064000E0700844CA079623002100F046B99623BB
:100650000022114600F041B90EB5C10F80EAE070EA
:100660000844CA07002140F233438DE80E000A46D1
:100670000B4600F06FF903B000BD0EB540F23341F8
:1006800002910021CDE900110A460B4600F062F903
:1006900003B000BD70B5C1F30A5201F0004500245B
:1006A000C1F3130140F2FF3341F480119A4201DAA1
:1006B000002070BD40F233439A42A2F2334203DC81
:1006C000524200F0DFF800E090402C43F1D040426D
:1006D00070BDC1F30A5210B5C1F3130140F2FF33EC
:1006E00041F480119A4201DA002010BD40F23343F8
:1006F0009A42A2F2334203DC524200F0C3F810BD2A
:10070000904010BD00F0004230F000400AD0C10D12
:1007100001F56071C0F3160042EA0151C2084007BA
:1007200011437047002001467047000030B5041E99
:1007300071F1000404DB4FF00044404264EB01011E
:10074000141E73F1000405DB1C464FF000435242B7
:1007500063EB04038B4208BF824230BD30B5041EF8
:1007600071F1000404DB4FF00044404264EB0101EE
:10077000141E73F1000405DB1C464FF00043524287
:1007800063EB0403994208BF904230BD01F000437F
:1007900030B421F0004150EA010206D00A0DA2F562
:1007A0006072C1F31301002A02DC30BC00207047E4
:1007B000440F44EAC104C100E01830BC00EBC25051
:1007C00000F082B8002801DBC0F10040002901DB05
:1007D000C1F100418842704730B50B460146002008
:1007E0002022012409E021FA02F59D4205D303FAF3
:1007F00002F5491B04FA02F52844151EA2F1010274
:10080000F1DC30BD2DE9F05F0546002092469B46A5
:1008100088460646814640241BE028464146474616
:10082000224600F02FF853465A46C01A914110D381
:1008300011461846224600F016F82D1A67EB0108FB
:100840004F4622460120002100F00DF817EB000969
:100850004E41201EA4F10104DFDC484631462A4601
:100860004346BDE8F09F202A04DB203A00FA02F15B
:10087000002070479140C2F1200320FA03F319438E
:1008800090407047202A04DB203A21FA02F0002130
:10089000704721FA02F3D040C2F120029140084390
:1008A00019467047202A06DBCB17203A41FA02F09E
:1008B00043EAE07306E041FA02F3D040C2F12002BD
:1008C00091400843194670470029A8BF7047401C53
:1008D000490008BF20F00100704710B4B0FA80FC56
:1008E00000FA0CF050EA010404BF10BC704749B193
:1008F000CCF1200421FA04F411FA0CF118BF012103
:1009000021430843A3EB0C01CB1D4FEA00614FEAE2
:10091000102042BF002010BC704700EBC3501044B1
:100920000029A4BF10BC7047401C490008BF20F03C
:10093000010010BC704710B5141E73F1000408DAF2
:10094000401C41F1000192185B411A4301D120F093
:10095000010010BD2DE9F04D92469B4611B1B1FA50
:1009600081F202E0B0FA80F220329046FFF77BFF7E
:1009700004460F4640EA0A0041EA0B0153465A4634
:10098000084313D0114653EA010019D0C8F14002C0
:100990005046FFF777FF05460E46504659464246F9
:1009A000FFF761FF084305D0012004E020463946E7
:1009B000BDE8F08D0020054346EAE0762C4337433E
:1009C0000A986305E40AA0EB08000022FD0A44EA45
:1009D00047540A3002D500200146E9E70105101905
:1009E0006941DDE9084500196941BDE8F04DA2E71C
:1009F000C1F30A52C1F3130140F2FF3341F48011F5
:100A00009A4202DA00200146704740F233439A428C
:100A1000A2F2334202DC5242FFF734BFFFF723BF9A
:100A2000064C074D06E0E06840F0010394E807003B
:100A300098471034AC42F6D3FFF77EFB505F0008B6
:100A4000705F000830B58C1810F8012B12F00F03FE
:100A500001D110F8013B120906D110F8012B03E077
:100A600010F8015B01F8015B5B1EF9D101E001F8B0
:100A7000013B521EFBD1A142E6D3002030BD21B183
:100A8000826842F00102826003E0826822F0010283
:100A90008260704710B504461248844208D1012193
:100AA000401501F09DFF0021601501F099FF17E04E
:100AB0000D48844208D10121001501F091FF002169
:100AC000201501F08DFF0BE00848844208D1012178
:100AD000C80301F085FF00214FF4004001F080FFC2
:100AE00010BD00000024014000280140003C0140EE
:100AF000014600208A6802F004020AB1012000E0E9
:100B0000002070470146C86C80B270470246002042
:100B100013680B400BB1012000E000207047014634
:100B200000208A6802F008020AB1012000E00020DB
:100B3000704700002DE9F041002429480088002872
:100B40002FD128480088052825D1264908800DE0A6
:100B50000121254800F0E1F8244909880844234987
:100B6000088020480088401C1E4908801D480088D5
:100B70003728EDDB1D480088FFF77FFD05461C4A3E
:100B80001C4BFFF77AFC0746FFF7A3FD17490880C7
:100B900001201349088013480088401C114908802F
:100BA0001BE0154800681549086001210E4800F057
:100BB000B4F80E490988451A2846FFF73FFD044658
:100BC0002046FFF79FFD05460D4A0E4BFFF755FCEB
:100BD0000746FFF75FFD08490860BDE8F0810000A7
:100BE000C0000020BE000020002401404E00002074
:100BF0007B14AE47E17A943F440000204800002077
:100C000065934D36D964E33F30B50246002000239A
:100C100050680F4C20400D790C6844EA05242043AD
:100C2000506090680B4C2040D1E902542C434D7920
:100C300044EA450420439060D06A20F470000C7CA4
:100C4000641EE4B2234340EA0350D06230BD00008A
:100C5000FFFEF0FFFDF7F1FFF0B504460D46002062
:100C60000021092D11DDE068A5F10A0606EB460713
:100C7000072606FA07F18843A5F10A0606EB4606A1
:100C800003FA06F10843E0600CE0206905EB450734
:100C9000072606FA07F1884305EB450603FA06F135
:100CA00008432061072A0FDA606B561E06EB8607A1
:100CB0001F2606FA07F18843561E06EB860605FA3C
:100CC00006F10843606322E00D2A0FDA206BD61F7D
:100CD00006EB86071F2606FA07F18843D61F06EBA8
:100CE000860605FA06F10843206310E0E06AA2F1E7
:100CF0000D0606EB86071F2606FA07F18843A2F1C8
:100D00000D0606EB860605FA06F10843E062F0BD23
:100D1000816841F00801816070472DE9F05F8146EC
:100D20008A460024A3460026002740F6FF780723C2
:100D3000012251464846FFF78FFF00251DE00121A3
:100D4000484600F027F800BF02214846FFF7DEFEC4
:100D50000028F9D04846FFF7D5FE0446A74201DD3A
:100D6000384600E020460746A04501DA404600E04C
:100D7000204680462644681CC5B2052DDFDBF01BEB
:100D8000A0EB08000321B0FBF1F01FFA80FB5846EE
:100D9000BDE8F09F21B1826842F4A002826003E0C6
:100DA000826822F4A00282607047816841F00401E9
:100DB0008160704700B587B001214FF4017001F0E8
:100DC000FFFD4FF4004001F0CFFD0220ADF804001C
:100DD00000208DF8070001A9174801F041F91748D4
:100DE000FFF758FE002002908DF80C008DF80D00E2
:100DF0004FF4602004900020059001208DF8180029
:100E000002A90E48FFF700FF01210C48FFF737FE4B
:100E10000A48FFF77DFF00BF0848FFF780FE002863
:100E2000FAD10648FFF7C1FF00BF0448FFF760FE94
:100E30000028FAD107B000BD00080140002401409D
:100E400000B587B0012140F2044001F0B9FD4FF434
:100E5000004001F089FD0420ADF8040000208DF869
:100E6000070001A9174801F0FBF81748FFF712FE29
:100E7000002002908DF80C008DF80D004FF46020DA
:100E800004900020059001208DF8180002A90E485A
:100E9000FFF7BAFE01210C48FFF7F1FD0A48FFF702
:100EA00037FF00BF0848FFF73AFE0028FAD106488E
:100EB000FFF77BFF00BF0448FFF71AFE0028FAD1B6
:100EC00007B000BD00080140002801403EB50124E4
:100ED00003F006FF04F036F9684908600846006828
:100EE00010B167A002F01AFC03220021012004F0D7
:100EF00019FA6C49086003220021012004F012FA5B
:100F0000694908606748006810B168A002F006FCF3
:100F10006548006838B1012202216F4800F05EFC8C
:100F20006EA002F0FBFB78480F2100238022CDE960
:100F3000001076A1794804F079FC0446012C03D115
:100F400077A002F0EBFB02E07DA002F0E7FB844813
:100F500084490E220023CDE900210290802282A143
:100F6000864804F095FC864908600846006818B178
:100F700084A002F0D3FB02E08AA002F0CFFB9148EC
:100F80000B2100238022CDE900108FA1934804F0AB
:100F90004DFC0446012C03D191A002F0BFFB02E0FE
:100FA00097A002F0BBFB9E480A2100234022CDE916
:100FB00000109CA1A04804F039FC0446012C03D188
:100FC0009EA002F0ABFB02E0A4A002F0A7FBAB489E
:100FD000092100234022CDE90010A9A1AD4804F069
:100FE00025FC0446012C03D1ABA002F097FB02E0E4
:100FF000B1A002F093FBB848082100234022CDE9BC
:101000000010B6A1BA4804F011FC0446012C03D12B
:10101000B8A002F083FB02E0BEA002F07FFBC5484F
:10102000102100230A01CDE90010C3A1C64804F035
:10103000FDFB0446012C03D1C4A002F06FFB02E0CB
:10104000CAA002F06BFBD148122100238022CDE917
:101050000010CFA1D24804F0E9FB0446012C03D1D3
:10106000D0A002F05BFB02E0D6A002F057FBDD4807
:10107000006803F0DBFE03F045FE3EBD14000020D7
:101080004576656E7447726F757048616E646C6505
:101090007220CAC2BCFEB4B4BDA8B3C9B9A6A3A18C
:1010A0000D0A0000180000201C00002042696E613B
:1010B000727953656D315F48616E646C6520B6FE70
:1010C000D6B5D0C5BAC5C1BFB4B4BDA8B3C9B9A659
:1010D000A3A10D0A000000000064004042696E6197
:1010E000727953656D325F48616E646C6520B6FE3F
:1010F000D6B5D0C5BAC5C1BFB4B4BDA8B3C9B9A629
:10110000A3A10D0A00000000240000205643555FF3
:101110004272616B655F5461736B0000352E00088D
:101120005643555F4252414B455F5441534BC8CEE5
:10113000CEF1B4B4BDA8B3C9B9A6210D0A00000010
:101140005643555F4252414B455F5441534BC8CEC5
:10115000CEF1B4B4BDA8CAA7B0DC210D0A000000CE
:10116000A80E0020640B00205643555F434F4D4DA1
:10117000414E445F53656E640000000089300008F2
:10118000280000205643555F434F4D4D414E445F6C
:1011900053656E64C8CECEF1B4B4BDA8B3C9B9A6C8
:1011A000210D0A005643555F434F4D4D414E445F5C
:1011B00053656E64C8CECEF1B4B4BDA8CAA7B0DC86
:1011C000210D0A002C0000204D43555F535441541B
:1011D0005553315F53686F770000000061240008A9
:1011E0004D43555F535441545553315F53686F77A6
:1011F000C8CECEF1B4B4BDA8B3C9B9A6210D0A00BA
:101200004D43555F535441545553315F53686F7785
:10121000C8CECEF1B4B4BDA8CAA7B0DC210D0A0077
:10122000300000204D43555F535441545553325FB5
:1012300053686F7700000000212500084D43555F7B
:10124000535441545553325F53686F77C8CECEF133
:10125000B4B4BDA8B3C9B9A6210D0A004D43555F6A
:10126000535441545553325F53686F77C8CECEF113
:10127000B4B4BDA8CAA7B0DC210D0A003400002018
:101280004D43555F535441545553335F53686F7703
:1012900000000000352600084D43555F535441546B
:1012A0005553335F53686F77C8CECEF1B4B4BDA841
:1012B000B3C9B9A6210D0A004D43555F535441549B
:1012C0005553335F53686F77C8CECEF1B4B4BDA821
:1012D000CAA7B0DC210D0A00380000204D43555F3D
:1012E000535441545553345F53686F7700000000E6
:1012F000652800084D43555F535441545553345F9E
:1013000053686F77C8CECEF1B4B4BDA8B3C9B9A63F
:10131000210D0A004D43555F535441545553345FDA
:1013200053686F77C8CECEF1B4B4BDA8CAA7B0DCFD
:10133000210D0A003C00002043414E5F52585F4897
:10134000414E444C450000007D19000843414E5F6A
:1013500052585F48414E444C45C8CECEF1B4B4BD5E
:10136000A8B3C9B9A6210D0A0000000043414E5F91
:1013700052585F48414E444C45C8CECEF1B4B4BD3E
:10138000A8CAA7B0DC210D0A000000004000002020
:101390005769745F4461745F48414E444C45000096
:1013A000F53400085769745F4461745F48414E44E6
:1013B0004C45C8CECEF1B4B4BDA8B3C9B9A6210D71
:1013C0000A0000005769745F4461745F48414E44ED
:1013D0004C45C8CECEF1B4B4BDA8CAA7B0DC210D2F
:1013E0000A0000002000002010B54FF4A06001F0BA
:1013F000B1FA482000F012FE4FF4E13003F0B6FBE2
:1014000000F06EF8FFF7D6FCFFF71AFD502102201E
:1014100001F004FF044801F017FF044801F0E6FE64
:10142000034801F0EFFE10BDD52A00088D340008F6
:101430001137000800BFFEE7B1F5007F3AD00FDC9E
:10144000202928D006DC01291CD004291DD0082918
:1014500040D11DE0402921D0B1F5807F3AD126E06E
:10146000B1F5004F31D006DCB1F5806F25D0B1F574
:10147000006F2FD124E0B1F5803F12D0B1F5003FCD
:1014800028D111E0154A826025E00822C26022E0DE
:101490001022C2601FE0082202611CE010220261DB
:1014A00019E00822426016E01022426013E0042294
:1014B000426010E0042242600DE0042242600AE033
:1014C000002282610422426005E00022826104223F
:1014D000426000E000BF00BF704700000101010052
:1014E00010B500F0C9F800F039FA00F00BFA00F07E
:1014F000A1F810BD10B504460B48844209D1012162
:10150000480601F04DFA00214FF0007001F048FA52
:1015100008E00121880601F043FA00214FF08060C5
:1015200001F03EFA10BD00000064004010B500213B
:10153000837A012202FA03F13D4A126842F0010265
:101540003B4B1A603A4A1C3212688A43384B1C33B0
:101550001A60027BCAB9364A0C3212688A43344B8D
:101560000C331A604288C38842EA0343304A40324F
:10157000847A42F834300288838842EA03432C4A52
:101580004032847A02EBC4025360027B012A19D1F3
:10159000274A0C3212680A43254B0C331A604288E2
:1015A000038842EA0343224A4032847A42F83430C4
:1015B000C288838842EA03431D4A4032847A02EBA0
:1015C000C4025360C27A3AB9194A121D12688A439A
:1015D000174B1B1D1A6006E0154A121D12680A43BC
:1015E000134B1B1D1A60028932B9114A143212685A
:1015F0008A430F4B14331A600289012A06D10C4A20
:10160000143212680A430A4B14331A60427B012ACF
:1016100006D1074A1C3212680A43054B1C331A6074
:10162000034A126822F00102014B1A6010BD00004B
:10163000006600401FB500208DF80A008DF80B00F1
:1016400001208DF80C000020ADF80000ADF802007C
:10165000ADF80400ADF80600ADF8080001208DF8E3
:101660000D006846FFF762FF00220221014800F0EA
:10167000B5F81FBD0064004008B50121052001F048
:101680009FF94FF40060ADF8000048208DF803008A
:101690006946094800F0E4FC4FF48050ADF80000C2
:1016A00003208DF8020018208DF8030069460248D7
:1016B00000F0D6FC08BD00000008014070B50446EB
:1016C0000D46002660692840002871D0B5F5807F5E
:1016D0005CD010DC082D35D006DC012D20D0022D89
:1016E00024D0042D72D127E0102D31D0202D35D0FB
:1016F000402D6BD138E0B5F5004F60D009DCB5F571
:10170000007F49D0B5F5806F4CD0B5F5006F5DD145
:101710004FE0B5F5803F2DD0B5F5003F56D12FE015
:10172000A0682D4900F0B6FB064651E0E0680321B1
:1017300000F0B0FB06464BE0E068082100F0AAFB91
:10174000064645E0E068102100F0A4FB06463FE0B5
:101750002069032100F09EFB064639E0206908213C
:1017600000F098FB064633E02069102100F092FB60
:1017700006462DE06068082100F08CFB064627E055
:101780006068102100F086FB064621E0A069012177
:1017900000F080FB06461BE0A069022100F07AFB06
:1017A000064615E0A069042100F074FB06460FE030
:1017B0000FE0A069702100F06DFB064608E060684C
:1017C000042100F067FB064602E0FFE7002600BFA9
:1017D00000E00026304670BD010101001AB14369E6
:1017E0000B43436102E043698B434361704730B56B
:1017F000024600200023146824F0020414601468D8
:1018000044F00104146000E05B1C546804F001041F
:101810001CB94FF6FF74A342F6D1546804F00104DA
:101820000CB900206CE08C79012C04D1146844F0D0
:101830008004146003E0146824F080041460CC7900
:10184000012C04D1146844F04004146003E01468CF
:1018500024F0400414600C7A012C04D1146844F084
:101860002004146003E0146824F0200414604C7A0F
:10187000012C04D1146844F01004146003E01468CF
:1018800024F0100414608C7A012C04D1146844F004
:101890000804146003E0146824F008041460CC7A8F
:1018A000012C04D1146844F00404146003E01468AB
:1018B00024F0040414608C78A407CD7844EA05640D
:1018C0000D7944EA05444D7944EA05540D886D1EAE
:1018D0002C43D461146824F001041460002300E058
:1018E0005B1C546804F001041CB14FF6FF74A34262
:1018F000F6D1546804F001040CB1002000E001208E
:1019000030BD00000EB50121480601F039F812483B
:10191000FFF7F0FD684600F08FF900208DF8060013
:101920008DF807008DF808008DF809008DF80A0081
:101930008DF80B008DF802008DF803000C208DF857
:10194000040001208DF805000920ADF8000069466B
:101950000148FFF74CFF0EBD0064004008B514209D
:101960008DF8000001208DF803008DF801000020A3
:101970008DF80200684600F0B5FF08BD0024C6E0FF
:1019800000235A1E19466248006803F001FD00203A
:1019900060490860486008728872C874002405E0D5
:1019A00000215C480B300155601CC4B2082CF7DBE9
:1019B000584A0021584800F0C7F85648406857492F
:1019C000884218D15348007A042814D15148807AAB
:1019D000082810D1002406E04E480B30005D504925
:1019E0000855601CC4B2082CF6DB02214D48006883
:1019F00003F0B7FB76E0474840684B49884218D16E
:101A00004448007A042814D14248807A082810D12A
:101A1000002406E03F480B30005D44490855601C37
:101A2000C4B2082CF6DB04213E48006803F099FBA1
:101A300058E0384840683E49884218D13548007A15
:101A4000042814D13348807A082810D1002406E0F5
:101A500030480B30005D37490855601CC4B2082C73
:101A6000F6DB08212F48006803F07BFB3AE02948A9
:101A700040683149884218D12648007A042814D198
:101A80002448807A082810D1002406E021480B3031
:101A9000005D2A490855601CC4B2082CF6DB1021F1
:101AA0002048006803F05DFB1CE01A4840682449A8
:101AB000884217D11748007A042813D11548807A34
:101AC00008280FD1002406E012480B30005D1D49A4
:101AD0000855601CC4B2082CF6DB202111480068B0
:101AE00003F03FFB0B480068502810D10948007AEA
:101AF00068B90848807A082809D10648817A0B30ED
:101B000001F044FB40210748006803F02AFB37E757
:101B10001C000020280F0020006400400800FF0C7B
:101B200079000020140000200801FF0C8100002033
:101B30000802FF0C890000200803FF0C9100002020
:101B4000F5FFEF189900002010B500F5D87303EBEE
:101B500001131B6803F004031372137A53B900F5E1
:101B6000D87303EB01131B6840F2FF7404EA53536C
:101B7000136009E000F5D87303EB01131B686FF0E5
:101B8000604404EAD303536000F5D87303EB0113F8
:101B90001B6803F00203537200F5D87303EB0113C3
:101BA0005B6803F00F03937200F5D87303EB011326
:101BB0005B681B0AD37400F5D87303EB01139B68B1
:101BC000D37200F5D87303EB01139B681C0A1473DE
:101BD00000F5D87303EB01139B681C0C547300F5DC
:101BE000D87303EB01139B681B0E937300F5D87336
:101BF00003EB0113DB68D37300F5D87303EB011318
:101C0000DB681C0A147400F5D87303EB0113DB685E
:101C10001C0C547400F5D87303EB0113DB681B0E26
:101C2000937421B9C36843F02003C36003E00369E0
:101C300043F02003036110BD00218171C171017265
:101C400041728172C1728170C170032101710221E0
:101C5000417101210180704710B502460020936850
:101C600003F08063B3F1806F00D110E0936803F05C
:101C70000063B3F1006F01D1012008E0936803F025
:101C80008053B3F1805F01D1022000E004200428DA
:101C900074D002F5C07303EB00131B6803F001045A
:101CA00002F5C07303EB00131C600B7A7BB94B7A0F
:101CB0000C8843EA445302F5C07404EB0014246812
:101CC000234302F5C07404EB0014236010E00B7A88
:101CD0004C6843EAC4034C7A234302F5C07404EB16
:101CE00000142468234302F5C07404EB001423603D
:101CF0008B7A03F00F038B7202F5C07303EB0013B2
:101D00005B6823F00F0402F5C07303EB00135C6003
:101D100002F5C07303EB00135B688C7A234302F572
:101D2000C07404EB001463608B7B1C064B7B44EA9D
:101D300003440B7B44EA0323CC7A234302F5C074AB
:101D400004EB0014A3608B7C1C064B7C44EA034428
:101D50000B7C44EA0323CC7B234302F5C07404EBE1
:101D60000014E36002F5C07303EB00131B6843F03B
:101D7000010402F5C07303EB00131C6010BD0000EA
:101D800010B50246002321B1012907D002290FD145
:101D900009E090681D4C00EA04030BE090681C4CBD
:101DA00000EA040306E090681A4C00EA040301E02C
:101DB000002300BF00BF184C181BA34216D007DC3D
:101DC00083B16FF08060184470B1022818D111E01F
:101DD000B0F5007F10D0114C204448B1B0F5003F61
:101DE0000ED10BE002230DE000230BE0002309E0FD
:101DF000002307E0012305E0012303E0012301E0C4
:101E0000002300BF00BFD8B210BD000003000004D3
:101E10000003000800000310000100080001FFF7A4
:101E20002DE9F04186B0074688461546002400207B
:101E30000190029704208DF80C0000208DF80D0011
:101E40008DF80E5000BF05E018F804100DF10F00DA
:101E50000155641CAC42F7D301A90D48FFF7FCFE05
:101E60000646002400E0641C31460948FFF788FF5D
:101E700018B940F6FF708442F5D340F6FF708442F3
:101E800003D3002006B0BDE8F0810120FAE700008E
:101E9000006400400246002002EA01030BB1012069
:101EA00000E000207047000010B51248007861285B
:101EB00004D0652810D06D2815D106E001F0D0F9C6
:101EC00010B10DA001F02AFC0EE001F0F1F910B103
:101ED0000FA001F023FC07E001F012FA10B10CA0F2
:101EE00001F01CFC00E010BD00BFFF20014908709C
:101EF00000BFF8E7F10000200D0A5365742041632C
:101F00006343616C69204572726F720D0A000000B4
:101F10000D0A536574204D616743616C69204572F9
:101F2000726F720D0A0000002DE9F84F07460C464B
:101F300090464FF00009CA4600250026A346A01D82
:101F400000900425A7F1500010283AD2DFE800F0F5
:101F50001608190F1E2326292C2F32393939393505
:101F60004FF0340903254FF0400A01262BE04FF0D3
:101F70003D0903254FF02E0A012624E04FF03009D9
:101F800021E04FF037094FF003081CE04FF03A0909
:101F90004FF0030817E04FF0410914E04FF04509F6
:101FA00011E04FF049090EE04FF04D090BE04FF002
:101FB000510908E04FF0550905E01448D0F80090A9
:101FC00001E0BDE8F88F00BFB8F1030F01D1032590
:101FD00000265DB16A000E4901EB49005946FEF743
:101FE00011F9294648460B4A126890475EB17200C3
:101FF000074901EB4A000099FEF704F931465046C3
:10200000044A1268904700BFDBE70000EC000020A4
:1020100054100020DC0000207047000070B504461A
:10202000042000F003FE0C48047025464FF47A703B
:1020300045430120094908804FF0E020006940F045
:1020400002004FF0E021086108464561006940F058
:102050000100086170BD0000C2000020C400002023
:102060002DE9F0410246002500260020002300242F
:10207000002791F803C00CF00F0591F803C00CF095
:10208000100CBCF1000F03D091F802C04CEA05051A
:1020900091F800C0BCF1000F31D0146800202BE093
:1020A0004FF0010C0CFA00F3B1F800C00CEA030683
:1020B0009E4220D183004FF00F0C0CFA03F7BC4373
:1020C00005FA03FC4CEA040491F803C0BCF1280FA4
:1020D00006D14FF0010C0CFA00FCC2F814C00AE063
:1020E00091F803C0BCF1480F05D14FF0010C0CFA78
:1020F00000FCC2F810C0401C0828D1D31460B1F80D
:1021000000C0BCF1FF0F34DD546800202EE000F168
:10211000080C4FF0010808FA0CF3B1F800C00CEA03
:1021200003069E4221D183004FF00F0C0CFA03F7F7
:10213000BC4305FA03FC4CEA040491F803C0BCF16B
:10214000280F05D100F1080C08FA0CF8C2F8148029
:1021500091F803C0BCF1480F07D100F1080C4FF013
:10216000010808FA0CF8C2F81080401C0828CED3E9
:102170005460BDE8F081000002A001F0CFFA00BF7A
:10218000FEE70000486172644661756C745F4861E7
:102190006E646C65720D0A00FEB5002400250026F1
:1021A0007E4800687E490968451A642D01DD0126D4
:1021B0000CE005F16400002803DB642D01DC02263D
:1021C00004E005F16400002800DA0326012E04D0A3
:1021D000022E5DD0032E7DD1AAE07248007801283E
:1021E00032D100BF6E480068322829DB6E48B0F952
:1021F00000006B49096888421ADD00206B490870AD
:10220000084601680091416801918068684B024668
:102210000290009800F05CFF04462CB90822644943
:102220006448FFF7FDFD04460F2002F0E5FDD9E705
:102230005B48008800B25D494881322002F0DCFD35
:102240000020584908700EE055480068322805DB28
:102250005348008800B25549488104E000204F49A6
:102260000860524908705148016800914168019125
:1022700080684F4B02460290009800F029FF044608
:102280002CB908224A494B48FFF7CAFD044683E0AF
:102290004248006842490968884225DD3F48006895
:1022A000322805DB3D48008800B24049488104E0FF
:1022B00000203A4908603D4908703C480168009197
:1022C0004168019180683A4B02460290009800F004
:1022D000FFFE00E05FE004464CBB0822344935486D
:1022E000FFF79EFD044622E02D480068322805DBFA
:1022F0002B48008800B22D49488104E0002027497E
:1023000008602A49087029480168009141680191D4
:102310008068274B02460290009800F0D9FE0446E0
:102320002CB9082222492348FFF77AFD044633E0FE
:102330001B480068322811DB1B48B0F9000018491F
:102340000968884204DD18480088184948810DE072
:102350001348008800B21549488107E0012011495F
:10236000087000200D490860104908700F48016886
:1023700000914168019180680D4B024602900098DF
:1023800000F0A6FE04462CB9082209490948FFF7C7
:1023900047FD044600E000BF00BFFEBD480000202E
:1023A0004400002050000020480F00203C0F002077
:1023B00051000020EF08FF0C2DE9FC4781460C4638
:1023C0004FF0000A2178607801EB0020A0F56850FA
:1023D00098380FFA80FAA9F800A0A178E07801EB0C
:1023E0000020A0F5985088380FFA80FAA9F802A0CA
:1023F0002279617902EB0120FEF72EF90746164A91
:10240000164BFEF73AF8054600221346FDF78EFFFD
:10241000CDE90001FEF73EF90FFA80FAA9F804A011
:10242000A079C0F3001089F80600A079C0F340102D
:1024300089F80700A079C0F3801089F80800E079D6
:1024400000F00F0089F80900E079000989F80A0016
:102450000020BDE8FC8700009A9999999999B93FA5
:1024600008B50026002426E04FF0FF3001231A466D
:10247000022100901048006802F0BCFE054605F0FD
:102480000200022814D1002405E00C48005D0C492C
:102490000855601CC4B2082CF7DB09490948FFF74E
:1024A0008BFF064626B1012E02D107A001F036F9B6
:1024B0000D2002F0A1FCD7E71400002079000020D5
:1024C00059000020480F00205354415455533120E7
:1024D0004E4F210D0A00000010B502460023087877
:1024E000283810704878283850708C78C87804EBF9
:1024F000002003B253800C79487904EB002003B22A
:102500009380887900F00F00042803DD887900F0BB
:102510000F009071C8790009D071002010BD000033
:1025200008B50024002627E04FF0FF3001231A46AB
:10253000042100901148006802F05CFE054605F099
:102540000400042814D1002405E00D48005D0D4965
:102550000855601CC4B2082CF7DB0A490A48FFF78B
:10256000BBFF064626B1012E02D108A001F0D6F825
:1025700040F28F1002F040FCD6E70000140000206B
:102580008100002061000020A2000020535441542B
:10259000555332204E4F210D0A0000002DE9FC4713
:1025A00081460C464FF0000AA278E17802EB012048
:1025B000FEF752F81C4A1D4BCDE90001FDF75DFF07
:1025C000054600221A4BFDF752FF0746FEF762F858
:1025D0000FFA80FAA9F800A02279617902EB0120B4
:1025E000FEF73AF80746104A104BFDF746FF05463E
:1025F00000221346FDF79AFECDE90001FEF74AF8E6
:102600000FFA80FAA9F802A0A179E07900F00F0092
:1026100001EB0020A9F80400E079000989F8060020
:102620000020BDE8FC8700009A9999999999B93FD3
:1026300000408F4008B50024002627E04FF0FF300F
:1026400001231A46082100901148006802F0D2FDCB
:10265000054605F00800082814D1002405E00D48BF
:10266000005D0D490855601CC4B2082CF7DB0A490F
:102670000A48FFF793FF064626B1012E02D108A0B3
:1026800001F04CF840F22B1002F0B6FBD6E7000048
:10269000140000208900002069000020AA0000200A
:1026A00053544154555333204E4F210D0A0000001E
:1026B00002460878136860F3000313600878430843
:1026C000106863F34100106008788308106863F3B2
:1026D000820010600878C308106863F3C3001060BC
:1026E00008780309106863F3041010600878430940
:1026F000106863F34510106008788309106863F36D
:10270000861010600878C309106863F3C710106062
:102710004878136860F3082313604878430810680A
:1027200063F34920106048788308106863F38A20B7
:1027300010604878C308106863F3CB2010604878B5
:102740000309106863F30C3010604878430910687F
:1027500063F34D30106048788309106863F38E305E
:1027600010604878C309106863F3CF301060887830
:10277000136860F31043136088784308106863F3AC
:102780005140106088788308106863F392401060AD
:102790008878C308106863F3D34010608878030911
:1027A000106863F31450106088784309106863F36D
:1027B0005550106088788309106863F39650106054
:1027C0008878C309106863F3D7501060C87813681D
:1027D00060F318631360C8784308106863F35960A6
:1027E0001060C8788308106863F39A601060C87836
:1027F000C308106863F3DB601060C87803091068D1
:1028000063F31C701060C8784309106863F35D704F
:102810001060C8788309106863F39E701060C878F0
:10282000C309106863F3DF7010600879137960F3EF
:102830000003137108794008137960F341031371A1
:1028400008798008137960F3820313710879C0084E
:10285000137960F3C3031371C87900095071002024
:102860007047000008B50024002626E04FF0FF3036
:1028700001231A46102100901048006802F0BAFCAB
:10288000054605F01000102814D1002405E00C487E
:10289000005D0C490855601CC4B2082CF7DB0949DF
:1028A0000948FFF705FF064626B1012E02D107A011
:1028B00000F034FFC72002F09FFAD7E71400002091
:1028C0009100002071000020B400002053544154B6
:1028D000555334204E4F210D0A00000000BFFEE783
:1028E0007047000070B5002100230F22C47804B3A4
:1028F000154C246804F4E064C4F5E064210AC1F1D5
:102900000403CA40447804FA03F184781440214354
:1029100009010E4C0678A155047804F01F05012426
:10292000AC4005786D11AD0005F1E025C5F800411A
:1029300009E0047804F01F050124AC40044D06783A
:10294000761145F8264070BD0CED00E000E400E093
:1029500080E100E002490143024A11607047000033
:102960000000FA050CED00E001460020034A506823
:1029700020F44040084350607047000000100240BF
:1029800029B1064AD2690243044BDA6104E0034AE2
:10299000D2698243014BDA617047000000100240A7
:1029A00029B1064A12690243044B1A6104E0034A42
:1029B00012698243014B1A61704700000010024007
:1029C00029B1064A92690243044B9A6104E0034A22
:1029D00092698243014B9A617047000000100240E7
:1029E00029B1064AD2680243044BDA6004E0034A84
:1029F000D2688243014BDA60704700000010024049
:102A000030B500210022002400232D4D6D6805F013
:102A10000C0121B1042905D0082923D105E0294D55
:102A2000056022E0274D05601FE0254D6D6805F427
:102A30007012234D6D6805F48034022505EB924237
:102A40001CB9214D554305600BE01D4D6D6805F423
:102A500000351DB11C4D5543056002E0194D55432D
:102A6000056002E0174D056000BF00BF144D6D68A2
:102A700005F0F0010909154D6B5C0568DD40456006
:102A80000F4D6D6805F4E061090A104D6B5C4568F7
:102A9000DD4085600A4D6D6805F46051C90A0B4D33
:102AA0006B5C4568DD40C560054D6D6805F44041CF
:102AB000890B074D6B5CC568B5FBF3F5056130BD4F
:102AC0000010024000127A0000093D0000000020C2
:102AD0001000002010B500222EE0362806D039283C
:102AE0000BD03C2810D03F281CD114E0144B1B788D
:102AF00043F00103124C23701BE0114B1B7843F091
:102B000002030F4C237014E00D4B1B7843F00803B5
:102B10000B4C23700DE00A4B1B7843F00403084C68
:102B2000237006E0064B1B7843F08003044C2370AF
:102B300000BF00BF401C521C8A42CED310BD000013
:102B4000F000002010B500F001F810BD0CB5002019
:102B5000019000903348006840F4803031490860AB
:102B600000BF3048006800F4003000900198401C1D
:102B70000190009818B90198B0F5A06FF1D12948DB
:102B8000006800F4003010B10120009001E0002046
:102B900000900098012843D12348006840F01000BD
:102BA000214908600846006820F0030008600846D4
:102BB000006840F0020008601A48406819494860FF
:102BC0000846406848600846406840F480604860B5
:102BD0000846406820F47C1048600846406840F48D
:102BE000E81048600846006840F08070086000BF48
:102BF0000C48006800F000700028F9D009484068CF
:102C000020F00300074948600846406840F0020091
:102C1000486000BF0348406800F00C000828F9D164
:102C20000CBD00000010024000200240042808D122
:102C30004FF0E021096941F004014FF0E0221161F9
:102C400007E04FF0E021096921F004014FF0E02294
:102C50001161704710B502F043FE012801D002F067
:102C600047FB10BD10B51348006840F00100114942
:102C7000086008464068104908400E494860084608
:102C800000680E4908400B4908600846006820F4B7
:102C9000802008600846406820F4FE0048604FF439
:102CA0001F008860FFF74EFF4FF000600449086086
:102CB00010BD0000001002400000FFF8FFFFF6FE0C
:102CC00008ED00E021B1828942F40052828104E0E3
:102CD00082894DF6FF731A40828170472DE9F047D3
:102CE00086B005460E460024A24600BFA146002736
:102CF000B08900B100BF2F462C8A4CF6FF7004400B
:102D0000F08804432C82AC894EF6F3100440B0885E
:102D100031890843718908430443AC81AC8A4FF67A
:102D2000FF400440B0890443AC8201A8FFF768FE6D
:102D30001F48874202D1DDF810A001E0DDF80CA0A9
:102D4000A88900F4004040B10AEBCA0000EB0A1069
:102D500031684900B0FBF1F807E00AEBCA0000EB6C
:102D60000A1031688900B0FBF1F86420B8FBF0F07C
:102D700004012009642101FB1089A88900F40040A6
:102D800040B1322000EBC900B0FBF1F000F00700C9
:102D9000044308E0322000EB09106421B0FBF1F09D
:102DA00000F00F0004432C8106B0BDE8F08700005E
:102DB0000038014038B5002402211948FEF77EFC96
:102DC00000282CD002211648FEF736FB00201549BA
:102DD0000860486008728872C87400BF05E000216E
:102DE00010480B300155601CC4B2082CF7DB0D4AAB
:102DF00000210B48FEF7A8FE0020009069460A4813
:102E0000006802F09DFC05464DB1009838B14FF0C6
:102E1000805006490860BFF34F8FBFF36F8F38BDF6
:102E200000640040280F00201C00002004ED00E09A
:102E300000BFFEE786B04FF0000A00200590049026
:102E4000C7E002216348FDF768FF0446FDF7FFFB7A
:102E500005900598FDF756FC80464FF066325E4BB4
:102E6000FDF70BFB064600225C4BFDF778FB0446A2
:102E7000FDF78CFC04903AE00120594908700020CD
:102E8000584908705849087008460168019141681E
:102E900002918068554B02460390019800F018F9A2
:102EA0008246BAF1000F05D1082250495048FEF77A
:102EB000B7FF82460A2001F09FFF02214548FDF737
:102EC0002CFF0446FDF7C3FB05900598FDF71AFC9F
:102ED00080464FF06632404BFDF7CFFA064600229F
:102EE0003E4BFDF73CFB0446FDF750FC04904FF0D1
:102EF00080410498FDF766FCBED939480078012866
:102F00005DD13848007818BB01213A48FDF705FF2C
:102F100039490988401A4FF4FA6100FB01FB584611
:102F2000FDF79AFB80460022344BFDF7A6FA0646D1
:102F30000022334BFDF713FB04460022314BFDF713
:102F4000F5FB05D2002030490860012025490870B2
:102F500024480078012839D12C49B1F90000FDF747
:102F60007BFB04460D4601212248FDF7D6FE22498F
:102F70000988401A4FF4FA6100FB01FB5846FDF73F
:102F80006BFB00221D4BCDE90201FDF776FA0646E8
:102F900000221B4BFDF7E3FA804622462B46FDF745
:102FA000DDFB13D200200F4908700D490870002383
:102FB0001A4619461648006802F0D8FA06E00023BF
:102FC0001A4619461248006802F0D0FA0E2001F0A5
:102FD00013FF36E70028014066660A400000B04053
:102FE0004C000020BC0000203C0F002051000020BD
:102FF000EF08FF0C002401404E0000200000F03FCD
:1030000000C8A9400000594048000020480F002097
:103010001800002007B59DF8000001282FDC9DF85E
:10302000010001282BDC9DF80200032827DC9DF815
:103030000200012823DB9DF803000F281FDCBDF8E8
:103040000400B0F5805F1ADABDF80600B0F5805FC5
:1030500015DABDF9080041F2883188420FDCBDF96C
:103060000800494288420ADBBDF90A0043F698216C
:10307000884204DCBDF90A004942884201DA012095
:103080000EBD0020FCE700001CE000235A1E19467C
:103090000D48006802F07CF901200C4908700020FE
:1030A0004870012088704FF4FA7088801420C8801E
:1030B0000020C8700881FDF73DFDFFF76DF807207F
:1030C00001F09AFEE1E70000180000203C0F00200C
:1030D0001FB51C469DE80700FFF79CFF012801D1A2
:1030E00004B010BD0020207020789DF80010084327
:1030F000207020789DF8011040EA4100207020786F
:103100009DF8021040EA8100207020789DF803109D
:1031100040EA01102070BDF8040060700020A0702B
:10312000A078BDF80410C1F303210843A070A07873
:10313000BDF8061001F00F0140EA0110A070002058
:10314000E070BDF80600C0F30710E07000202071A9
:10315000BDF808008830207100206071BDF80800BB
:1031600041F288310844000A60710020A071BDF866
:103170000A009830A0710020E071BDF80A0043F603
:1031800098210844000AE0710020A9E77CB50446B4
:103190000D461448006800B97CBD13480068022839
:1031A0001BD12078552800D0F6E7A078E17840EAD6
:1031B0000120ADF800002079617940EA0120ADF8E6
:1031C0000200A079E17940EA0120ADF804006078BE
:1031D00003226946FEF7A8FE00E000BF00BF00BF63
:1031E000DAE70000DC000020E8000020014611B909
:1031F0006FF005007047024801600020FAE7000008
:10320000D4000020014611B96FF005007047024854
:1032100001600020FAE70000D80000200246032ADF
:1032200002D96FF00500704704480260044801703D
:103230000020044B186000BFF5E70000E800002004
:10324000E0000020E4000020014611B96FF0050005
:103250007047024801600020FAE70000DC0000200F
:1032600010B54BF28851692000F072F810B16FF080
:10327000020010BD0C480068012804D114200B493D
:103280000968884706E00848006818B9012007491E
:10329000096888470121084600F05AF810B16FF01C
:1032A0000200E6E70020E4E7E8000020D800002064
:1032B00010B54BF28851692000F04AF810B16FF058
:1032C000020010BD0C480068012804D114200B49ED
:1032D0000968884706E00848006818B901200749CE
:1032E000096888470721012000F032F810B16FF01B
:1032F0000200E6E70020E4E7E8000020D800002014
:1033000010B54BF28851692000F022F810B16FF02F
:10331000020010BD0C480068012804D114200B499C
:103320000968884706E00848006818B9012007497D
:10333000096888470021012000F00AF810B16FF0F9
:103340000200E6E70020E4E7E8000020D8000020C3
:103350002DE9FC4105460C46902D03D36FF0050086
:10336000BDE8FC814448006830B101281FD0022824
:1033700047D003287AD161E04048006810B96FF067
:103380000400EDE7FF208DF80000AA208DF8010071
:10339000E8B28DF80200E0B28DF8030020128DF83B
:1033A000040005216846354A1268904761E03348B9
:1033B000006810B96FF00400D2E7314800788DF84A
:1033C000000006208DF80100280A8DF80200E8B2FE
:1033D0008DF8030020128DF80400E0B28DF805008E
:1033E0000621684600F0AAF9064630128DF806005C
:1033F000F0B28DF8070008216846204A126890470D
:1034000037E02048006810B96FF00400A8E7FF20FB
:103410008DF80000AA208DF80100E8B28DF80200B6
:10342000E0B28DF8030020128DF8040005226946F1
:1034300013480078134B1B6898471AE0124800683D
:1034400010B96FF004008BE7E0B28DF80000201295
:103450008DF80100E9B20A4A12785206100E0223D2
:103460006A46094F3F68B84703E0FFE76FF0050081
:1034700076E700BF002073E7E8000020C8000020C6
:10348000E0000020D4000020CC0000202DE9F04115
:1034900086B0074688461546002401970020029012
:1034A0008DF80C008DF80D00E8B28DF80E0000BF0D
:1034B00006E018F804100DF10F000155601C84B2ED
:1034C000AC42F6D301A90A48FEF7C6FB0646002423
:1034D00001E0601C84B231460548FEF751FC18B982
:1034E00040F6FF708442F4DB06B0BDE8F0810000D6
:1034F000006400408EB0D4E04FF0FF3001231A4644
:10350000402100906748006801F074FE83460BF08C
:1035100040004028EFD1FEF7C7FC63480078002840
:103520007ED04FF0000A3BE00AF134015F4A32F9E5
:103530001100FDF783F805464FF08E41FCF7B8FE09
:1035400004464FF08341FCF781FE0BA941F82A00A5
:103550000AF13701554A32F91100FDF76FF80546B7
:103560004FF08E41FCF7A4FE04465149FCF76EFE75
:1035700008A941F82A000AF13D014C4A32F911002C
:10358000FDF75CF805464FF08E41FCF791FE0446CE
:103590004849FCF75BFE05A941F82A000AF1010A37
:1035A000BAF1030FC0DB4048007800F00100E0B141
:1035B0000D98FDF7A7F804460D460C98FDF7A2F804
:1035C00006460F460B98FDF79DF8804642460B468F
:1035D00039A0CDE90067CDE9024500F09FF83248F7
:1035E000007820F00100304908702F48007800F082
:1035F0000200E0B10A98FDF785F8804689460998EF
:10360000FDF780F804460D460898FDF77BF806465E
:1036100032460B462EA08DE8300300F07FF800E024
:103620003CE02148007820F002001F4908701E4845
:10363000007800F00400E0B10798FDF763F8044655
:103640000D460698FDF75EF806460F460598FDF70D
:1036500059F8804642460B4623A0CDE90067CDE9E4
:10366000024500F05BF81048007820F004000E4995
:1036700008700D48007800F0080078B10B48B0F9E8
:103680007830B0F97620B0F974101DA000F046F83B
:103690000548007820F00800034908700F2001F069
:1036A000ABFB29E714000020F0000020541000209C
:1036B0000000FA44000034436163633A252E336608
:1036C00020252E336620252E33660D0A00000000CB
:1036D0006779726F3A252E336620252E33662025B2
:1036E0002E33660D0A000000616E676C653A252E68
:1036F000336620252E336620252E33660D0A000002
:103700006D61673A25642025642025640D0A000058
:1037100010B50446204601F06FFB10BD0FB4054BF9
:1037200010B503A9044A029800F0F6F810BC5DF841
:1037300014FB0000214000086001002070B5034622
:103740000C46FF25FF26002200BF00BF09E0985C61
:1037500080EA05010548405C80EA06050448465CAD
:10376000521CA242F3DB46EA052070BD505D000802
:10377000505E000802E008C8121F08C1002AFAD1F2
:1037800070477047002001E001C1121F002AFBD1E1
:10379000704700002DE9FF5F82B00021DDE90430B1
:1037A000020DDDF840B0034318D044F61050A2F2E9
:1037B000FF3242431514119801281FD0A5EB0B00CE
:1037C000401C5FEA000A4FF000064E4FDFF83891C8
:1037D000B046504615D5CAF1000413E011980124F3
:1037E0004AA3012801D16FEA0B010298119AC0E99E
:1037F0000031C0E9024206B0BDE8F09FCBF1000005
:10380000DFE704460021404A491842EB0450CDE965
:10381000001012E0E00707D032463B4640464946DA
:10382000FCF72BFE8046894632463B461046194639
:10383000FCF723FE06460F466410002CEAD1DDE9B2
:103840000401DDE90023BAF1000F06DAFCF715FEEA
:1038500042464B46FCF711FE05E0FCF780FE42466F
:103860004B46FCF77CFE04460E460022284BFCF734
:1038700075FF03D84FF0FF30014607E00022254BCB
:1038800020463146FCF752FDFDF7B2F8102409E05E
:10389000002C0ADB0A220023FCF7B4FF039B303222
:1038A0001A55641E50EA0102F2D1641C039AC4F155
:1038B00011031444119A012A03D0012208430DD1A7
:1038C0000AE0084304D000204FF0110B119072E77A
:1038D000A3EB0B056D1E0DE05B4504DD4FF0000210
:1038E00005F1010504E003DA4FF00002A5F101053E
:1038F000002AECD002981199C0E90231C0E90045D4
:1039000079E70000000014400000F03F30000000A4
:103910000000F0430000E03F2DE9FF4F95B09A46CC
:10392000884606460025EEE1252877D10024274663
:10393000F94A0121039400E0044316F8013F203BBB
:1039400001FA03F01042F7D130782A2811D06FF035
:103950002F033078A0F13002092A16D8039A44F0D8
:10396000020402EB820203EB42021044761C039035
:10397000EFE758F8042B0392002A03DA504244F48C
:103980000054039044F00204761C30782E2816D19F
:1039900016F8010F44F004042A280DD06FF02F020E
:1039A0003078A0F13003092B09D807EB870302EB2D
:1039B0004303C718761CF3E758F8047B761C30786D
:1039C0006C280FD006DC4C2817D068280DD06A2848
:1039D00014D104E0742810D07A280FD10DE044F4FB
:1039E00000140AE044F4801401E044F440147278B6
:1039F000824202D104F58014761C761C3078662849
:103A00000BD013DC582877D009DC002875D0452866
:103A1000F6D04628F4D047281AD193E118E063285D
:103A200035D0642879D0652812D18BE1702873D005
:103A300008DC6728F1D069286FD06E280DD06F2878
:103A400006D1ACE073282CD0752874D0782853D0D8
:103A50005246179990476D1C54E1C4F30250022856
:103A600009D003280DD0D8F8001004280DD00D601F
:103A700008F1040846E1D8F80010EA17C1E900523D
:103A8000F6E7D8F800100D80F2E70D70F0E718F8AF
:103A9000041B8DF8001000208DF80100EB4601207A
:103AA00003E058F804BB4FF0FF3061074FF000010E
:103AB00002D40DE009F101018946B9420FDA8145CE
:103AC000F8DB1BF809100029F4D108E009F1010125
:103AD00089468142FADB1BF809100029F6D10398C8
:103AE0005346A0EB090721463846179A00F080FAA2
:103AF000284400EB090507E044E008E10DE01BF86D
:103B0000010B524617999047B9F10109F7D2534674
:103B100021463846179AF2E039E00A21C4F30252EE
:103B20004FF0000B0091022A06D058F8040BC11781
:103B3000032A09D00AE023E008F1070020F0070279
:103B4000F2E80201904605E000B2C117042A01D153
:103B500040B2C117002906DA0A460021404261EB53
:103B600002012D2202E0220504D52B228DF804202B
:103B7000012203E0E20701D02022F7E7914657E057
:103B80000A2100E010214FF0000B00910BE0102102
:103B90004FF0000B44F004040827009103E00820D4
:103BA0004FF0000B0090C4F30252022A05D058F8DF
:103BB000040B0021032A08D008E008F1070020F0D8
:103BC0000702F2E80201904603E080B2042A00D125
:103BD000C0B24FF0000922072AD53278702A07D0E8
:103BE000DDF800C08CF0100C5CEA0B0C05D00EE088
:103BF00040228DF80420012208E050EA010306D09B
:103C000030238DF804308DF8052002229146009B68
:103C100083F0080353EA0B030AD150EA010201D1F1
:103C2000620705D530228DF804204FF001097F1E70
:103C30003278582A04D039A20C920CAA02920BE0D6
:103C40003BA2F9E75B46009AFCF7DCFD0C9B9B5C12
:103C5000029A521E0292137050EA0102F2D10298A7
:103C600004A9081A00F1200B600702D524F480345F
:103C700000E001275F4502DDA7EB0B0000E000201C
:103C800000EB0B01009003984944401A0390E003B5
:103C900006D453462146179A039800F0A9F9054423
:103CA000002706E001A85246C05D179990476D1C99
:103CB0007F1C4F45F6DBE0030CD553462146179A8F
:103CC000039800F095F9054404E030205246179916
:103CD00090476D1C0099481E00900029F5DC08E013
:103CE0000298029952460078491C02911799904710
:103CF0006D1CBBF10001ABF1010BF1DC5BE100F0ED
:103D000065F90544761C307800287FF40DAE19B0B3
:103D10002846BDE8F08F0000092801003031323319
:103D200034353637383961626364656600000000F7
:103D300030313233343536373839414243444546E1
:103D400000000000600700D4062708F1070020F0FB
:103D50000700F0E80223804603F0004C5FEA0C0005
:103D600001D097A009E0200501D596A005E0E00765
:103D700001D095A001E0AFF24C001390307823F011
:103D8000004365280CD006DC452809D046281DD004
:103D900047287FD13BE0662818D067287AD136E0E3
:103DA0000021112F01DB112000E0781CCDE900017A
:103DB00004A90CA8FFF7EEFCDDE90D010C9A4FF009
:103DC000000B07F10109109200914EE04FF0004006
:103DD0000097CDE9011004A90CA8FFF7DBFCDDE991
:103DE0000D020C9B0F994FF0000B9146109300921F
:103DF00011B9791C00EB0109B7EB090003D4C0F13C
:103E0000FF3B07F10109A9EB0700019042E0012FF8
:103E100000DA01270021112F01DD112000E03846D2
:103E2000CDE9000104A90CA8FFF7B4FCDDE90D0100
:103E30000C9A00914FF0000BB946109221070FD455
:103E4000009A4A4503DA914601E0A9F10109B9F166
:103E5000010F05DD109AA9F10101515C3029F4D060
:103E6000B84202DA10F1040F03DA0121CDE90110A2
:103E700010E0002803DC8344A9EB000102E0411CB0
:103E8000494500DD8946A0EB0B00401C01904FF036
:103E900000400290200705D40198484502DB4FF00E
:103EA000FF30019000208DF84B0002980DF14B0778
:103EB000B0F1004F25D002200C902B200D900298DD
:103EC00000280CDA404202902D200D9007E00A21D4
:103ED0000298FCF781FC3031029007F8011D0C9923
:103EE000481E0C900029F2DC02980028EFD1791EC0
:103EF0000D980870307800F0200040F0450007F879
:103F0000020D11A8C01BC01D02901398007800B1CB
:103F1000012000EB0901019801EBE07102980144D6
:103F20000398401A401E0390E00306D453462146EE
:103F3000179A039800F05CF805441398007818B1BC
:103F40005246179990476D1CE00323D553462146EE
:103F5000179A039800F04CF805441BE0BBF1000FE2
:103F600007DB0098584504DD1098179910F80B00EE
:103F700001E0179930205246904701980BF1010B50
:103F8000401E05F10105019004D12E2052461799DB
:103F900090476D1CB9F10001A9F10109DEDC05E0D3
:103FA00017F8010B5246179990476D1C0299481E4D
:103FB00002900029F4DC53462146179A03989EE6A6
:103FC0002D0000002B000000200000002DE9F04132
:103FD000044600251E461746880404D405E03946E9
:103FE0002020B0476D1C641EF9D52846BDE8F0813D
:103FF0002DE9F041044600251E469046C80301D530
:10400000302700E02027880404D505E041463846E3
:10401000B0476D1C641EF9D52846BDE8F08100004C
:1040200000BF054A128802F04002002AF9D0C2B24D
:10403000014B1B1D1A807047003801400EB5FDF77B
:10404000D3F90EA0FFF76AFB13481449032200239B
:10405000CDE9002102904FF4807211A1144801F0C3
:1040600017FC144908600846006810B100F0E8FF2A
:1040700002E011A0FFF752FB00BFFEE7B7C9D2ED87
:10408000B3B5B6D3B5E7B3B5564355BAAFCAFDB568
:10409000F7CAD4210D0A00003C0E0020640700205E
:1040A0004170705461736B43726561746500000008
:1040B000CD0E000820000020B4B4BDA8CAA7B0DC13
:1040C00021200D0A000000002DE9F04105460E46B2
:1040D0001C4807681C480068001D00F091FD50B99D
:1040E0001948006890F82C10012088401749096889
:1040F000814316480160681C38B936B1124801681E
:10410000091D134800F0E0FD1AE07C190E48006814
:104110004460BC4207D20C480168091D0D48006884
:1041200000F0B8FD0CE008480168091D0A48006865
:1041300000F0B0FD09480068844201D207480460DD
:10414000BDE8F08108010020F40000200C010020EF
:1041500094140020FC000020F8000020240100201E
:1041600010B5044600F0BCFD24480068401C2349FB
:1041700008602348006840B9214804600846006888
:1041800001280DD100F0E2F90AE01E48006838B9B4
:104190001B480068C06AE16A884201D81848046078
:1041A00019480068401C18490860084600686065A6
:1041B00094F82C10012088401449096808431349D9
:1041C0000860E16A01EB8101114A02EB8100211DC7
:1041D00000F07AFD00F096FD0A48006868B10848D2
:1041E0000068C06AE16A884207D24FF080500949EE
:1041F0000860BFF34F8FBFF36F8F10BD0401002025
:10420000F400002010010020200100200C010020FB
:10421000C411002004ED00E008B500F061FD124873
:104220000068E8B9114800F025FD114800F022FDB2
:104230000E48104908600E480F49086000200F4BD7
:104240000F4A102100900A2001F08BF806490860FF
:104250000846006820B10BA10348006800F090FDFB
:1042600000F050FD08BD000038010020A814002017
:10427000BC1400203001002034010020D0140020A4
:1042800024150020546D72510000000070B523E029
:1042900000F020FF1348006808B9012000E000206A
:1042A000054601F07BFCBDB900F01AFD0D48C06861
:1042B000C468201D00F0A4FC0B480068401E0A4999
:1042C00008600A480068401E0849086000F01AFDAE
:1042D000204600F060F800BF044800680028D7D1ED
:1042E00070BD0000801400200401002000010020A7
:1042F00070B504460D46206C70B1216CE06808442E
:10430000E0606168E068884201D32068E060284688
:10431000226CE168FBF776FF70BD2DE9F0410446A1
:104320000F4615464FF00008A66B206C40B9206878
:1043300060BB606801F078FB80460020606025E08B
:104340007DB93946226CA068FBF75CFF216CA06840
:104350000844A060D4E90110884217D32068A06007
:1043600014E03946226CE068FBF74CFF216CE068F2
:10437000401AE0602168E068884203D2216C6068DE
:10438000401AE060022D01D106B1761E701CA063B8
:104390004046BDE8F08110B5044694F8690030B994
:1043A000206B00F0BFFC204600F0BCFC06E094F857
:1043B0006900012802D1204600F0B4FC10BD0000C5
:1043C0000146084A126812680AB9012200E0002278
:1043D0000A600A6822B9034A1268D268106800E0CD
:1043E000002070473001002030B54FF420531748AB
:1043F00000F007042CB1C01D20F00700134C041B73
:104400001B1B0246124C22600024114D6C60D01818
:10441000083820F007000F4C206000240D4D2D6857
:104420006C600C4D2D682C601146441A4C60094C90
:1044300024680C60084D4C682C60084D4C682C605A
:104440004FF00044064D2C6030BD0000C415002024
:104450004801002050010020580100205401002094
:104460005C01002000BFFFF711FF0648006801282B
:10447000F9D94FF0805004490860BFF34F8FBFF364
:104480006F8FF0E7C411002004ED00E02DE9F0414A
:1044900006460D4617469846069C0DB9246000E076
:1044A0002760E66325640121204601F01FF884F8A7
:1044B00050800020A064BDE8F0812DE9F05F8146C6
:1044C0000F4690469A460A9E0C9C4FEA8801A52208
:1044D000206BFBF7A9FEA8F10100216B01EB800B1B
:1044E0002BF0070B002507E0795D04F134004155FE
:1044F000785D00B902E06D1C202DF5D300BF0021CE
:1045000053200155202E00D31F26E662E6650020C9
:104510002066201D00F0BBFB04F1180000F0B7FB83
:104520002461C6F12000A06164620020606684F806
:10453000680052464946584600F006FB20600B983A
:1045400008B10B980460BDE8F09F000010B500248E
:1045500007E004EB84010F4A02EB810000F08AFBC4
:10456000641C202CF5D30C4800F084FB0B4800F0B1
:1045700081FB0B4800F07EFB0A4800F07BFB0A48F9
:1045800000F078FB044809490860044808490860BD
:1045900010BD0000C4110020441400205814002055
:1045A0006C1400208014002094140020F8000020D7
:1045B000FC00002010B50146164800E000680368C2
:1045C0008B42FBD30246436813448B4204D14368B9
:1045D0004C682344436001460A464B681344046810
:1045E000A34211D10C4C03682468A34208D04B6845
:1045F0000468646823444B6003681B680B6005E033
:10460000054B1B680B6001E003680B60884200D01B
:10461000016010BD48010020500100202DE9F0414B
:1046200004460D4616461F464FF00008656024619B
:10463000B5420CD8F01BA169884202D34FF00108A3
:1046400011E0211D0948006800F024FB0BE0BE4288
:1046500004D2BD4202D34FF0010804E0211D0448FA
:10466000006800F017FB4046BDE8F08134010020EF
:104670003001002070B5054600F032FBA86B08B988
:10468000012400E0002400F03DFB204670BD70B521
:10469000054600F025FBA86BE96B884201D1012497
:1046A00000E0002400F02EFB204670BD2DE9F34110
:1046B0000D460098846C0027A06BE16B88421BD2EA
:1046C00094F945602A4669462046FFF726FE0746CC
:1046D000701C60B9606A08B9012000E0002050B980
:1046E00004F1240001F0E2F928B1012703E0701C75
:1046F00040B284F8450000BF3846BDE8FC810000A8
:10470000F8B505460E4610480068C068C468201D0C
:1047100000F076FAE069012811D1A06941192B4611
:1047200032462046FFF77AFF48B1002003462A466A
:1047300001460090204601F0D5FA074600BF20460A
:10474000616A8847F8BD000030010020F0B587B0ED
:1047500059E00398002805DA04AED6E90020B168D4
:10476000904700BF039800284DDB059C606908B99D
:10477000012000E0002010B9201D00F041FA02A83D
:1047800000F0A2F8054603980A283AD2DFE800F0C4
:104790000905072527320608262800BF00BF00BFED
:1047A00000BF0498A269811803462A462046FFF7F5
:1047B00035FF88B12046616A8847E06901280BD13E
:1047C000002000900498A169421800231946204651
:1047D00001F088FA074600BF14E000BF12E000BFF6
:1047E0000498A061A06941192B462A462046FFF78C
:1047F00015FF07E094F82C0010B9204600F092FA5B
:1048000000E000BF00BF00231A4603A90348006868
:1048100000F0BEFD00289CD107B0F0BD380100209B
:10482000F8B505460C4600F055FC684600F04CF81B
:104830000646009820BB44B9B54206D801F0AEF94F
:1048400031462846FFF75CFF1CE03CB10E4800688B
:10485000006808B9012000E000200446A91B224698
:104860000A48006800F0A2FA01F098F950B94FF038
:10487000805007490860BFF34F8FBFF36F8F01E08F
:1048800001F08CF9F8BD000034010020380100204F
:1048900004ED00E00A490968096809B9012100E04E
:1048A000002121B14FF0FF31064A116006E00449B2
:1048B0000968C968C868034A416811607047000008
:1048C000F80000202401002070B5044601F018F81B
:1048D000054607480068854204D200F00BF8012025
:1048E000206001E00020206001480560284670BD7E
:1048F000400100202DE9F84326E01D480068C0680B
:1049000005681B480068C068C468201D00F078F97D
:104910002046616A8847E069012815D1A0694619D7
:10492000AE4207D966602461211D1148006800F07D
:10493000B1F909E0002003462A46014600902046CE
:1049400001F0D0F9804600BF09480068006808B946
:10495000012000E000200028CFD005480768054866
:1049600000680349086003480760BDE8F883000059
:10497000300100203401002000BFBF2080F31188E7
:10498000BFF34F8FBFF36F8F00BF00BFFEE710B5BF
:104990000346002022B903EA010434B1012004E0F7
:1049A00003EA01048C4200D1012010BD08B500BF0C
:1049B0006846FFF705FD044620460099FFF730FFE3
:1049C000FFF7C4FEF4E770B5044600F089F994F9E6
:1049D00045501AE0A06C38B100212046FFF766FE72
:1049E00088B100F089FA0EE0606A08B9012000E0A1
:1049F000002038B904F1240001F058F818B100F093
:104A00007BFA00E003E0681E45B2002DE2DC00BF47
:104A1000FF2084F8450000F075F900F061F994F981
:104A2000445010E0206908B9012000E0002048B996
:104A300004F1100001F03AF808B100F05DFA681EC8
:104A400045B200E001E0002DECDC00BFFF2084F85F
:104A5000440000F057F970BD2DE9F04105464FF0D4
:104A6000000800F037FB2B48006808B9FFF7BCFCD2
:104A7000294800682840002847D145B1083505F08D
:104A8000070020B105F00700C0F108000544002D23
:104A90003BD022480068854237D8214E3046046812
:104AA00001E0264624686068A84202D220680028F7
:104AB000F7D118480068844227D0306800F1080810
:104AC000206830606068401B102807D9671960684B
:104AD000401B786065603846FFF76CFD0F496068E1
:104AE0000968081A0D490860084600680D490968F8
:104AF000884203D2094800680A490860064960688C
:104B00000968084360600020206001F047F84046D3
:104B1000BDE8F081500100205C010020540100201C
:104B200048010020580100200648006830B10549BE
:104B3000096801F16000096E491C016001480068C4
:104B400070470000F4000020001F4FF080730360E6
:104B5000001F21F001030360001F034B03601438A2
:104B600002602038704700007949000810B586B00F
:104B70000446012144F20400FDF722FF4FF40070C7
:104B8000ADF8140003208DF8160018208DF81700DA
:104B900005A91948FDF764FA4FF48060ADF81400D8
:104BA00004208DF8170005A91348FDF759FA2520B0
:104BB0008DF8000001208DF8010000208DF8020022
:104BC0008DF803006846FDF78DFE01940020ADF8D6
:104BD0000800ADF80A00ADF80C00ADF810000C208C
:104BE000ADF80E0001A90548FEF778F80121034849
:104BF000FEF768F806B010BD00080140003801401B
:104C000001460A69D1E901309860D1E90103586091
:104C10005068884201D1886850600020086110689F
:104C2000401E10601068704705490968886904498A
:104C30000968C96AC1F12001014A1268916170478F
:104C4000F4000020034B0360034B0B6080231360D0
:104C500070470000640D002064010020034B0360D6
:104C6000034B0B604FF4807313607047D00D00202E
:104C70006403002000F1080141604FF0FF318160C2
:104C800000F10801C160016100210160704700214D
:104C90000161704710B502460B685C1C0CB91069C5
:104CA00007E002F1080000E04068446824689C4284
:104CB000FAD944684C604C68A160886041600A6120
:104CC0001468641C146010BD42684A6093688B606D
:104CD000936859609160086103685B1C03607047CA
:104CE00000BFBF2080F31188BFF34F8FBFF36F8FDA
:104CF00000BF03480068401C01490860704700007D
:104D00004401002006480068401E05490860084626
:104D1000006820B9002080F3118800BF00BF7047F1
:104D20004401002070B506463546D6B1083D2C46F4
:104D30000C4960680968084098B1206888B9094939
:104D4000606809688843606000F0C4F906496068DB
:104D500009680844044908602046FFF72BFC00F06E
:104D60001DFF70BD5C0100205401002003484FF07E
:104D7000E021486107200861704700003F190100E9
:104D8000024600200BE0084B53F8303033B9064B95
:104D900043F8301003EBC0035A6002E0401C0A28BD
:104DA000F1D300BF70470000741100202DE9F041DD
:104DB00005460E4617462C46FFF792FF94F944002D
:104DC000401C10B9002084F8440094F94500401CB0
:104DD00010B9002084F84500FFF794FFA06B28B9B4
:104DE0003A46314604F1240000F09CF82046FFF7D3
:104DF000EAFDBDE8F081000070B50446002544B12D
:104E000000F068F900212046FFF75EF900F0C6FEC9
:104E100005463DB94FF0805003490860BFF34F8FFE
:104E2000BFF36F8F70BD000004ED00E070B5054664
:104E3000FFF756FF15B92748006800E028460446EA
:104E4000201DFFF7DDFE78B9E06A00EB8000224903
:104E500051F8200040B994F82C10012088401F49D7
:104E6000096881431D480160A06A18B104F1180067
:104E7000FFF7C6FE1A480068401C1949086015482B
:104E80000068844209D1211D1648FFF71DFF16480E
:104E90000068401C1449086009E014480068401E7E
:104EA000124908602046FFF776FAFFF7F3FCFFF798
:104EB00029FF0F48006858B106480068844207D1AE
:104EC0004FF080500B490860BFF34F8FBFF36F8FD7
:104ED00070BD0000F4000020C41100200C0100206F
:104EE0002001002080140020000100200401002087
:104EF0001001002004ED00E0012001490860704726
:104F00001801002070B505460C46054801681831A7
:104F10002846FFF7BFFE01212046FFF7D5F870BDF8
:104F2000F400002070B506460D4614460648016898
:104F300018313046FFF7C8FE0CB14FF0FF3521465F
:104F40002846FFF7C1F870BDF400002070B5064692
:104F50000C46154644F0004006490968886105483A
:104F6000016818313046FFF7AFFE01212846FFF7F0
:104F7000ABF870BDF400002070B505462C46002D3E
:104F80004BD02649E06A0968C96A884245D2A069BF
:104F900000F0004028B921480068C06AC0F1200034
:104FA000A061E16A01EB81011D4A02EB81016069A8
:104FB000884201D1012000E0002050B3201DFFF7FE
:104FC0001FFE78B9E06A00EB8000154951F8200017
:104FD00040B994F82C100120884012490968814397
:104FE000104801600D480068C06AE06294F82C1017
:104FF000012088400B49096808430A490860E16AB2
:1050000001EB8101064A02EB8100211DFFF75CFEE6
:1050100003E002480068C06AE06270BDF40000204E
:10502000C41100200C0100200349096801600349F4
:1050300009684160704700001C0100200801002041
:1050400010B586B000200590049003AA04A905A815
:10505000FFF7F8FD0022DDE904101346CDE9002139
:10506000029015A11648039A00F012FC1549086039
:105070000846006808B1012400E00024012C02D198
:1050800000F000FE0446012C14D100BFBF2080F3C5
:105090001188BFF34F8FBFF36F8F00BF4FF0FF300A
:1050A0000949086001200949086000200849086092
:1050B00000F004F906B010BD49444C450000000062
:1050C0006544000828010020240100201001002070
:1050D0000801002002480068401C01490860704730
:1050E0002C0100201248006818B101201149086005
:1050F0001DE000200F4908600F480068B0FA80F0FA
:10510000C0F11F0101EB81020C4B03EB82004268EE
:105110005268426000F108024368934202D142683B
:10512000526842604268D268054B1A6000BF7047FF
:105130002C010020180100200C010020C4110020C7
:10514000F400002010B52020FFF786FC044634B19F
:1051500000202060201DFFF78DFD002020772046D5
:1051600010BD2DE9FE4F06468946002001903446C9
:10517000009004F1040B0BF108000290FFF7AAFF66
:10518000DBF80C70206840EA0900206026E0D7F8C0
:1051900004A03D680020009005F07F4825F07F4581
:1051A00008F0806028B92068284040B101200090B4
:1051B00005E020682840A84201D101200090009815
:1051C00058B108F0807010B1019828430190206810
:1051D00040F00071384600F0A9FC5746029887421B
:1051E000D5D1206801998843206000F0D7FC206861
:1051F000BDE8FE8F2DE9FF5F80460E4617469946B3
:10520000DDF838A044464FF0000B00200190FFF776
:1052100061FF206800904A4631460098FFF7B7FBCF
:105220000390039830B1009DDA46BFB12068B043C7
:10523000206013E0BAF1000F01D1009D0EE00FB124
:105240004BF0807BB9F1000F01D04BF0806B46EA48
:105250000B015246201DFFF779FE002500F09EFC51
:105260000290BAF1000F22D0029838B94FF0805066
:1052700011490860BFF34F8FBFF36F8FFFF7D4FC66
:10528000054605F0007080B9FFF72AFD25684A46FB
:1052900031462846FFF77BFB18B117B12068B043B1
:1052A0002060FFF72FFD0020019025F07F45284664
:1052B00004B0BDE8F09F000004ED00E010B50A481E
:1052C000006840F47F00084908600846006840F024
:1052D0007F400860FFF74AFD002004490860FAF7A4
:1052E00045FF002010BD000020ED00E0440100203B
:1052F00010B500BFBF2080F31188BFF34F8FBFF3FD
:105300006F8F00BF00F002FB18B14FF080500449CE
:10531000086000BF002080F3118800BF10BD0000AE
:1053200004ED00E02DE9F84307460D4690460DB91F
:10533000002601E007FB05F606F15400FFF78CFBA1
:1053400004465CB104F15409002084F84600434649
:105350004A46294638460094FFF798F82046BDE8AB
:10536000F8832DE9F84306460F4690461D46DDF8C2
:1053700020902C464CB1012084F846004B46424612
:10538000394630460094FFF781F82046BDE8F8839F
:105390002DE9FF4782B0054689461E464FF0000AB8
:1053A0002C4600BFFFF79CFCD4F83880B8F1000F02
:1053B0003BD0E76849462046FEF79AFFDEB9A8F1E0
:1053C0000100A063206810B9FFF7AEFB60602069A0
:1053D00008B9012000E0002008BB04F1100000F033
:1053E00065FBE0B14FF080503F490860BFF34F8F3D
:1053F000BFF36F8F13E0E760606A08B9012000E037
:10540000002060B904F1240000F050FB38B14FF0E7
:10541000805035490860BFF34F8FBFF36F8FFFF7A0
:1054200071FC012006B0BDE8F087049818B9FFF7B9
:1054300069FC0020F6E7BAF1000F04D16846FFF7D7
:10544000F3FD4FF0010AFFF75DFCFFF743FEFFF7A6
:1054500047FC94F94400401C10B9002084F8440033
:1054600094F94500401C10B9002084F84500FFF76E
:1054700049FC04A9684600F0ABF940BB2046FFF7A1
:10548000F9F8F0B1206830B9FFF72AFC6068FFF73F
:1054900073FDFFF737FC04F124000499FFF732FD98
:1054A0002046FFF790FA00F079FB00287FF47AAFEE
:1054B0004FF080500C490860BFF34F8FBFF36F8FE0
:1054C00070E72046FFF77FFA00F068FB6AE72046A6
:1054D000FFF779FA00F062FB2046FFF7CBF80028CF
:1054E000EED000209EE7000004ED00E070B5054618
:1054F0000E462C46FFF7F4FBD4E90F12206801FB9F
:10550000020060600020A0632068A060E06B401E85
:10551000226C216800FB0210E060FF2084F8440048
:1055200084F845009EB9206908B9012000E00020F8
:10553000A8B904F1100000F0B9FA80B14FF0805022
:1055400009490860BFF34F8FBFF36F8F07E004F185
:105550001000FFF78FFB04F12400FFF78BFBFFF730
:10556000D1FB012070BD000004ED00E02DE9FF43F8
:1055700083B0074688461D464FF000093C4600BFF1
:10558000FFF7AEFBA06BE16B884201D3022D38D14F
:105590002A4641462046FEF7C0FE0646A06C68B18A
:1055A00029462046FFF782F828B34FF080503C4947
:1055B0000860BFF34F8FBFF36F8F1CE0606A08B9BC
:1055C000012000E0002068B904F1240000F06EFA28
:1055D00088B14FF0805032490860BFF34F8FBFF35E
:1055E0006F8F08E03EB14FF080502D490860BFF347
:1055F0004F8FBFF36F8FFFF785FB012007B0BDE82A
:10560000F083059818B9FFF77DFB0020F6E7B9F1A4
:10561000000F04D101A8FFF707FD4FF00109FFF7C4
:1056200071FBFFF757FDFFF75BFB94F94400401C4B
:1056300010B9002084F8440094F94500401C10B9CA
:10564000002084F84500FFF75DFB05A901A800F0E4
:10565000BFF8F0B92046FFF71AF8A0B104F1100026
:105660000599FFF74FFC2046FFF7ADF900F096FAD9
:10567000002885D14FF0805009490860BFF34F8F53
:10568000BFF36F8F7CE72046FFF79DF900F086FAA5
:1056900076E72046FFF797F900F080FA0020ADE7A3
:1056A00004ED00E02DE9F05F06468A4615461F46E8
:1056B000344600BFBF21EFF3118081F31188BFF39F
:1056C0004F8FBFF36F8F00BF8146A06BE16B8842A5
:1056D00001D3022F2BD194F945B03A4651462046CA
:1056E000FEF71BFE0BF10100C8B9A06C40B13946B2
:1056F0002046FEF7DBFFB8B1B5B10120286013E00A
:10570000606A08B9012000E0002068B904F12400B3
:1057100000F0CCF940B13DB10120286004E00BF16C
:10572000010040B284F845004FF0010801E04FF05D
:10573000000800BF89F3118800BF4046BDE8F09F14
:105740002DE9F04706460D46344600BFBF21EFF372
:10575000118081F31188BFF34F8FBFF36F8F00BFAC
:105760008046D4F83890E06B484528D994F945A094
:1057700009F10100A0630AF10100C8B9A06C40B1B1
:1057800000212046FEF792FFB8B1B5B10120286094
:1057900013E0606A08B9012000E0002068B904F154
:1057A000240000F083F940B13DB10120286004E0FD
:1057B0000AF1010040B284F84500012700E000270B
:1057C00000BF88F3118800BF3846BDE8F0870000AD
:1057D00070B504460D46FFF783FA12480268286840
:1057E000401C08B9002619E00F4920680968884262
:1057F00004D06068904201D801260FE06068101A5A
:105800002968884209D228686168511A401A2860BC
:105810002046FFF709FC002600E00126FFF772FA98
:10582000304670BD080100201C0100202DE9FF4F0B
:1058300085B0804689461746DDE912ABB800FFF710
:105840000BF9064656B16C20FFF706F904460CB179
:10585000266304E03046FFF765FA00E000248CB1CF
:10586000002084F86900CDE900ABCDE902403A465A
:1058700049464046089BFEF720FE2046FEF770FC96
:10588000012501E04FF0FF35284609B0BDE8F08F53
:105890002DE9F04F85B00746884691469A46DDE9E6
:1058A0000EB6109CACB1A6B125462E63022085F839
:1058B0006900002004A953464A46CDE900B1CDE96C
:1058C000025041463846FEF7F8FD2846FEF748FCF0
:1058D00001E000200490049805B0BDE8F08F0000BE
:1058E0000549096809B9012005E00449096809B9B1
:1058F000022000E000207047100100202C01002051
:105900000149086870470000080100202DE9F041B6
:1059100000273A480068002863D139480068451CD0
:10592000374805608DB93748D0F8008036480068A0
:10593000344908603448C0F8008034480068401C8E
:1059400032490860FEF7A6FF00BF31480068854273
:105950003BD300BF2B480068006808B9012000E075
:10596000002020B14FF0FF30294908602CE0254885
:105970000068C068C4686668B54202D22448066000
:1059800022E0201DFFF73CF9A06A18B104F11800CD
:10599000FFF736F994F82C10012088401D4909685A
:1059A00008431C490860E16A01EB81011A4A02EBD5
:1059B0008100211DFFF788F91849E06A0968C96A62
:1059C0008842C7D30127C5E700BF14480068C06AF2
:1059D00000EB8000104951F82000012800D9012770
:1059E00004E00F480068401C0D4908600D4800683D
:1059F00000B101273846BDE8F08100002C010020ED
:105A000008010020F8000020FC0000201C010020FC
:105A1000240100200C010020C4110020F40000200B
:105A2000140100201801002070B505462C46002600
:105A3000ADB3206E401E2066E16DE06A88422ED034
:105A4000206E60BB201DFFF7DBF878B9E06A00EB41
:105A50008000144951F8200040B994F82C1001201E
:105A600088401149096881430F480160E06DE06298
:105A7000E06AC0F12000A06194F82C100120884059
:105A800009490968084308490860E16A01EB810196
:105A9000044A02EB8100211DFFF716F9012630466A
:105AA00070BD0000C41100200C01002070B5064636
:105AB000F068C46804F11800FFF7A2F81548006800
:105AC000A8B9201DFFF79CF894F82C1001208840FD
:105AD00011490968084310490860E16A01EB810136
