:020000040800F2
:10000000784B0020E10100086D250008E91D00087B
:10001000692500083B1200084D2A00080000000076
:10002000000000000000000000000000490100087E
:100030008B1C0008000000008D01000871280008DA
:10004000FB010008FB010008FB010008FB010008A0
:10005000FB010008FB010008FB010008FB01000890
:10006000FB010008FB010008FB010008FB01000880
:10007000FB010008FB010008FB010008FB01000870
:10008000FB010008FB010008FB010008FB01000860
:10009000D1290008FB010008FB010008FB01000852
:1000A000FB010008FB010008FB010008FB01000840
:1000B000FB010008FB010008FB010008FB01000830
:1000C000FB010008FB010008FB010008FB01000820
:1000D000FB010008FB010008FB010008FB01000810
:1000E000FB010008FB010008FB010008FB01000800
:1000F000FB010008FB010008FB010008FB010008F0
:10010000FB010008FB010008FB010008FB010008DF
:10011000FB010008FB010008FB010008FB010008CF
:10012000FB010008FB010008FB010008FB010008BF
:10013000DFF810D000F0BCFB00480047E12F0008BA
:10014000AFF30080784B0020224B19680868B0E8B4
:10015000F00F80F30988BFF36F8F4FF0000080F33A
:1001600011884EF00D0E7047000000000648006830
:10017000006880F3088862B661B6BFF34F8FBFF3A3
:100180006F8F00DF00BF00BF08ED00E0EFF30980D4
:10019000BFF36F8F0F4B1A6820E9F00F106008B59E
:1001A0004FF0BF0080F31188BFF34F8FBFF36F8F05
:1001B00003F06AFF4FF0000080F31188BDE80840AB
:1001C00019680868B0E8F00F80F30988BFF36F8FF3
:1001D000704700BFC4000020EFF3058070470000A7
:1001E0000648804706480047FEE7FEE7FEE7FEE7D1
:1001F000FEE7FEE7FEE7FEE7FEE7FEE781280008F0
:100200003101000840EA01039B0703D009E008C957
:10021000121F08C0042AFAD203E011F8013B00F8CB
:10022000013B521EF9D27047D2B201E000F8012B17
:10023000491EFBD270470022F6E710B513460A4666
:1002400004461946FFF7F0FF204610BD2DE9FE4F8A
:10025000804681EA0300C00F0C46009021F0004167
:1002600023F00045B8EB0200A94105D240462146E3
:1002700090461C460B46024623F00040104347D0F0
:10028000270DC7F30A00C3F30A510290401A0190E8
:1002900040286BDAC3F3130040F4801B00989246A9
:1002A00020B10023D2EB030A63EB0B0B01985946F4
:1002B000C0F14002504600F035FA06460D46504661
:1002C0005946019A00F04DFA10EB080061410024F4
:1002D00087EA115284EAE7731A4340D0009A62B366
:1002E000019A012A4FEA075215DC001B61EB02015B
:1002F0004FF0004202EA0752CDE90042001C41F5EE
:10030000801132462B4600F084FA03B0BDE8F08F2E
:1003100040462146F9E7001B61EB0201001C41F554
:10032000801300185B412018A2F5001747EB03016A
:1003300040EAD570B6196D4111E06D084FEA3606F6
:1003400045EAC0754FEA0752001B61EB0201001C31
:1003500041F5801149084FEA3000001951413246F9
:100360002B4603B0BDE8F04F00F044BA00980122DC
:1003700040000023D0EB020263EBE07300982146BB
:100380004FEAE074B8EB000061EB0401E9E783F0A9
:1003900000435BE781F0004158E72DE9FE4F81EA19
:1003A000030404F0004421F0004100944FF0000BDE
:1003B00023F0004350EA01045ED052EA03045BD00C
:1003C000C3F30A54C1F30A552C44A4F2F334019444
:1003D000A0FB0254C1F3130141F48011C3F31303D2
:1003E00043F4801301FB024400FB034E840A970A86
:1003F00044EA815447EA8357A4FB076802958D0AB3
:1004000005FB07854FEA932C04FB0C542705029D3E
:100410004FEA065847EA1637B5EB08056EEB070CAE
:10042000870E920E47EA811742EA8312A7FB020168
:10043000B6EB0B0164EB00042B0D43EA0C335E18A2
:1004400044EB1C50DA465146E7FB0201C5F31304A6
:100450004FEA0B3343EA14534FEA0432019C43EA58
:100460000603A4F10C040294009CCDE900B400F052
:10047000D0F903B0BDE8F08F00200146F9E72DE97F
:10048000F04D81EA030404F0004B21F000451446CE
:100490004FF0000A23F0004150EA050220D054EA50
:1004A00001021DD0C5F30A570246C5F31303C1F379
:1004B0001300C1F30A5640F4801543F48013A7EBF0
:1004C0000608101BD64608F2FD3873EB050002D370
:1004D00008F1010801E092185B41B8F1000F03DA5E
:1004E00000200146BDE8F08D00204FF48011064643
:1004F00084460EE0171B73EB050705D3121B63EB55
:10050000050306434CEA010C49084FEA30009218F3
:100510005B4150EA0107EDD152EA030012D082EAB2
:10052000040083EA0501084305D0101BAB4106D245
:100530000122002306E000224FF0004302E06FF0AA
:10054000010253101AEB06004CEB085110EB0A00A5
:1005500041EB0B01BDE8F04D00F04CB9C10F80EA52
:10056000E0700844CA079623002100F015B99623CD
:100570000022114600F010B90EB5C10F80EAE070FC
:100580000844CA07002140F233438DE80E000A46B2
:100590000B4600F03EF903B000BD0EB540F233410A
:1005A00002910021CDE900110A460B4600F031F915
:1005B00003B000BD70B5C1F30A5201F0004500243C
:1005C000C1F3130140F2FF3341F480119A4201DA82
:1005D000002070BD40F233439A42A2F2334203DC62
:1005E000524200F0AEF800E090402C43F1D040427F
:1005F00070BDC1F30A5210B5C1F3130140F2FF33CD
:1006000041F480119A4201DA002010BD40F23343D8
:100610009A42A2F2334203DC524200F092F810BD3B
:10062000904010BD00F0004230F000400AD0C10DF3
:1006300001F56071C0F3160042EA0151C20840079B
:1006400011437047002001467047000030B5041E7A
:1006500071F1000404DB4FF00044404264EB0101FF
:10066000141E73F1000405DB1C464FF00043524298
:1006700063EB04038B4208BF824230BD30B5041ED9
:1006800071F1000404DB4FF00044404264EB0101CF
:10069000141E73F1000405DB1C464FF00043524268
:1006A00063EB0403994208BF904230BD01F0004360
:1006B00030B421F0004150EA010206D00A0DA2F543
:1006C0006072C1F31301002A02DC30BC00207047C5
:1006D000440F44EAC104C100E01830BC00EBC25032
:1006E00000F051B8002801DBC0F10040002901DB17
:1006F000C1F100418842704730B50B4601460020E9
:100700002022012409E021FA02F59D4205D303FAD3
:1007100002F5491B04FA02F52844151EA2F1010254
:10072000F1DC30BD202A04DB203A00FA02F100207F
:1007300070479140C2F1200320FA03F3194390401F
:100740007047202A04DB203A21FA02F0002170478A
:1007500021FA02F3D040C2F1200291400843194629
:100760007047202A06DBCB17203A41FA02F043EA11
:10077000E07306E041FA02F3D040C2F1200291405A
:100780000843194670470029A8BF7047401C49001C
:1007900008BF20F00100704710B4B0FA80FC00FAE6
:1007A0000CF050EA010404BF10BC704749B1CCF111
:1007B000200421FA04F411FA0CF118BF012121439D
:1007C0000843A3EB0C01CB1D4FEA00614FEA102058
:1007D00042BF002010BC704700EBC35010440029FA
:1007E000A4BF10BC7047401C490008BF20F00100A6
:1007F00010BC704710B5141E73F1000408DA401CD9
:1008000041F1000192185B411A4301D120F001002F
:1008100010BD2DE9F04D92469B4611B1B1FA81F21F
:1008200002E0B0FA80F220329046FFF77BFF0446E8
:100830000F4640EA0A0041EA0B0153465A46084374
:1008400013D0114653EA010019D0C8F140025046B6
:10085000FFF777FF05460E46504659464246FFF7DA
:1008600061FF084305D0012004E020463946BDE879
:10087000F08D0020054346EAE0762C4337430A9882
:100880006305E40AA0EB08000022FD0A44EA47548D
:100890000A3002D500200146E9E701051019694137
:1008A000DDE9084500196941BDE8F04DA2E7000007
:1008B000064C074D06E0E06840F0010394E80700AD
:1008C00098471034AC42F6D3FFF736FCF44C0008DE
:1008D000144D000870B58C1810F8015B15F0070373
:1008E00001D110F8013B2A1106D110F8012B03E0C9
:1008F00010F8016B01F8016B5B1EF9D12B0705D4D1
:100900000023521E0DD401F8013BFAE710F8013B19
:10091000CB1A921C03E013F8015B01F8015B521E35
:10092000F9D5A142D8D3002070BD21B1826842F030
:100930000102826003E0826822F001028260704757
:1009400010B504461248844208D10121401501F037
:100950008DFE0021601501F089FE17E00D488442EC
:1009600008D10121001501F081FE0021201501F0C0
:100970007DFE0BE00848844208D10121C80301F044
:1009800075FE00214FF4004001F070FE10BD000024
:100990000024014000280140003C014001460020A5
:1009A0008A6802F004020AB1012000E000207047CA
:1009B0000146C86C80B270470246002013680B40A5
:1009C0000BB1012000E000207047014600208A683A
:1009D00002F008020AB1012000E000207047000088
:1009E0002DE9F04100242948008800282FD128480B
:1009F0000088052825D1264908800DE001212548D9
:100A000000F0E1F824490988084423490880204877
:100A10000088401C1E4908801D4800883728EDDBEF
:100A20001D480088FFF7B9FD05461C4A1C4BFFF71F
:100A3000B4FC0746FFF7DDFD174908800120134984
:100A4000088013480088401C114908801BE01548A5
:100A500000681549086001210E4800F0B4F80E49FD
:100A60000988451A2846FFF779FD04462046FFF716
:100A7000D9FD05460D4A0E4BFFF78FFC0746FFF7E1
:100A800099FD08490860BDE8F0810000BC00002025
:100A9000BA000020002401404A0000207B14AE4729
:100AA000E17A943F400000204400002065934D36D9
:100AB000D964E33F30B502460020002350680F4C54
:100AC00020400D790C6844EA05242043506090686A
:100AD0000B4C2040D1E902542C434D7944EA4504A3
:100AE00020439060D06A20F470000C7C641EE4B255
:100AF000234340EA0350D06230BD0000FFFEF0FF08
:100B0000FDF7F1FFF0B504460D4600200021092D48
:100B100011DDE068A5F10A0606EB4607072606FA8E
:100B200007F18843A5F10A0606EB460603FA06F12B
:100B30000843E0600CE0206905EB4507072606FA4C
:100B400007F1884305EB450603FA06F108432061E7
:100B5000072A0FDA606B561E06EB86071F2606FA79
:100B600007F18843561E06EB860605FA06F1084390
:100B7000606322E00D2A0FDA206BD61F06EB860792
:100B80001F2606FA07F18843D61F06EB860605FAEC
:100B900006F10843206310E0E06AA2F10D0606EBBF
:100BA00086071F2606FA07F18843A2F10D0606EB19
:100BB000860605FA06F10843E062F0BD816841F05F
:100BC0000801816070472DE9F05F81468A46002464
:100BD000A3460026002740F6FF780723012251464E
:100BE0004846FFF78FFF00251DE00121484600F031
:100BF00027F800BF02214846FFF7DEFE0028F9D0A3
:100C00004846FFF7D5FE0446A74201DD384600E01E
:100C100020460746A04501DA404600E020468046CF
:100C20002644681CC5B2052DDFDBF01BA0EB0800D5
:100C30000321B0FBF1F01FFA80FB5846BDE8F09F9E
:100C400021B1826842F4A002826003E0826822F44B
:100C5000A00282607047816841F0040181607047A2
:100C600000B587B001214FF4017001F0EFFC4FF4A3
:100C7000004001F0BFFC0220ADF8040000208DF818
:100C8000070001A9174801F023F81748FFF758FE9D
:100C9000002002908DF80C008DF80D004FF46020BC
:100CA00004900020059001208DF8180002A90E483C
:100CB000FFF700FF01210C48FFF737FE0A48FFF756
:100CC0007DFF00BF0848FFF780FE0028FAD10648E4
:100CD000FFF7C1FF00BF0448FFF760FE0028FAD10C
:100CE00007B000BD000801400024014000B587B0F6
:100CF000012140F2044001F0A9FC4FF4004001F052
:100D000079FC0420ADF8040000208DF8070001A94B
:100D1000174800F0DDFF1748FFF712FE0020029091
:100D20008DF80C008DF80D004FF460200490002029
:100D3000059001208DF8180002A90E48FFF7BAFEB1
:100D400001210C48FFF7F1FD0A48FFF737FF00BF0C
:100D50000848FFF73AFE0028FAD10648FFF77BFF64
:100D600000BF0448FFF71AFE0028FAD107B000BD03
:100D700000080140002801403EB5012402F082FF36
:100D800003F0B2F95E4908600846006810B15DA042
:100D900002F01CF803220021012003F095FA6249B9
:100DA000086003220021012003F08EFA5F490860E9
:100DB0005D48006810B15EA002F008F85B4800686A
:100DC00038B101220221654800F00CFC64A001F05A
:100DD000FDFF6E480F2100238022CDE900106CA199
:100DE0006F4803F0F5FC0446012C03D16DA001F01F
:100DF000EDFF02E073A001F0E9FF7A487A490E2284
:100E00000023CDE900210290802278A17C4803F0E4
:100E100011FD7C4908600846006818B17AA001F00D
:100E2000D5FF02E080A001F0D1FF87480B2100230D
:100E30008022CDE9001085A1894803F0C9FC044651
:100E4000012C03D187A001F0C1FF02E08DA001F0C9
:100E5000BDFF94480A2100234022CDE9001092A151
:100E6000964803F0B5FC0446012C03D194A001F090
:100E7000ADFF02E09AA001F0A9FFA14809210023DB
:100E80004022CDE900109FA1A34803F0A1FC044635
:100E9000012C03D1A1A001F099FF02E0A7A001F06D
:100EA00095FFAE48082100234022CDE90010ACA1F7
:100EB000B04803F08DFC0446012C03D1AEA001F034
:100EC00085FF02E0B4A001F081FFBB4810210023A0
:100ED0008022CDE90010B9A1BC4803F079FC04469A
:100EE000012C03D1BAA001F071FF02E0C0A001F013
:100EF0006DFFC748006802F06BFF02F0D5FE3EBDF3
:100F0000140000204576656E7447726F75704861F5
:100F10006E646C657220CAC2BCFEB4B4BDA8B3C90D
:100F2000B9A6A3A10D0A0000180000201C00002093
:100F300042696E61727953656D315F48616E646CB0
:100F40006520B6FED6B5D0C5BAC5C1BFB4B4BDA87C
:100F5000B3C9B9A6A3A10D0A0000000000640040B7
:100F600042696E61727953656D325F48616E646C7F
:100F70006520B6FED6B5D0C5BAC5C1BFB4B4BDA84C
:100F8000B3C9B9A6A3A10D0A0000000024000020E7
:100F90005643555F4272616B655F5461736B00002D
:100FA000512A00085643555F4252414B455F544118
:100FB000534BC8CECEF1B4B4BDA8B3C9B9A6210D68
:100FC0000A0000005643555F4252414B455F544171
:100FD000534BC8CECEF1B4B4BDA8CAA7B0DC210D26
:100FE0000A000000780E0020340B00205643555FA5
:100FF000434F4D4D414E445F53656E640000000009
:10100000A52C0008280000205643555F434F4D4D46
:10101000414E445F53656E64C8CECEF1B4B4BDA8F2
:10102000B3C9B9A6210D0A005643555F434F4D4D34
:10103000414E445F53656E64C8CECEF1B4B4BDA8D2
:10104000CAA7B0DC210D0A002C0000204D43555FDB
:10105000535441545553315F53686F77000000007B
:10106000ED2000084D43555F535441545553315FB3
:1010700053686F77C8CECEF1B4B4BDA8B3C9B9A6D2
:10108000210D0A004D43555F535441545553315F70
:1010900053686F77C8CECEF1B4B4BDA8CAA7B0DC90
:1010A000210D0A00300000204D43555F5354415438
:1010B0005553325F53686F7700000000AD21000880
:1010C0004D43555F535441545553325F53686F77C6
:1010D000C8CECEF1B4B4BDA8B3C9B9A6210D0A00DB
:1010E0004D43555F535441545553325F53686F77A6
:1010F000C8CECEF1B4B4BDA8CAA7B0DC210D0A0099
:10110000340000204D43555F535441545553335FD1
:1011100053686F7700000000C12200084D43555FFF
:10112000535441545553335F53686F77C8CECEF153
:10113000B4B4BDA8B3C9B9A6210D0A004D43555F8B
:10114000535441545553335F53686F77C8CECEF133
:10115000B4B4BDA8CAA7B0DC210D0A003800002035
:101160004D43555F535441545553345F53686F7723
:1011700000000000F12400084D43555F53544154D2
:101180005553345F53686F77C8CECEF1B4B4BDA861
:10119000B3C9B9A6210D0A004D43555F53544154BC
:1011A0005553345F53686F77C8CECEF1B4B4BDA841
:1011B000CAA7B0DC210D0A003C00002043414E5F6D
:1011C00052585F48414E444C4500000085170008C6
:1011D00043414E5F52585F48414E444C45C8CECEC5
:1011E000F1B4B4BDA8B3C9B9A6210D0A000000002E
:1011F00043414E5F52585F48414E444C45C8CECEA5
:10120000F1B4B4BDA8CAA7B0DC210D0A00000000EB
:101210002000002010B54FF4A06001F0E1F9482053
:1012200000F034FD4FF4E13002F072FC00F05CF8A5
:10123000FFF716FDFFF75AFD10BD00BFFEE70000E7
:10124000B1F5007F3AD00FDC202928D006DC012937
:101250001CD004291DD0082940D11DE0402921D0EF
:10126000B1F5807F3AD126E0B1F5004F31D006DCF0
:10127000B1F5806F25D0B1F5006F2FD124E0B1F525
:10128000803F12D0B1F5003F28D111E0154A8260AD
:1012900025E00822C26022E01022C2601FE008227E
:1012A00002611CE01022026119E00822426016E08F
:1012B0001022426013E00422426010E004224260E7
:1012C0000DE0042242600AE00022826104224260B2
:1012D00005E0002282610422426000E000BF00BFFE
:1012E000704700000101010010B500F0C9F800F0DE
:1012F00039FA00F00BFA00F0A1F810BD10B5044661
:101300000B48844209D10121480601F08FF90021E0
:101310004FF0007001F08AF908E00121880601F021
:1013200085F900214FF0806001F080F910BD0000C8
:101330000064004010B50021837A012202FA03F113
:101340003D4A126842F001023B4B1A603A4A1C3295
:1013500012688A43384B1C331A60027BCAB9364A7A
:101360000C3212688A43344B0C331A604288C388AB
:1013700042EA0343304A4032847A42F834300288E9
:10138000838842EA03432C4A4032847A02EBC40247
:101390005360027B012A19D1274A0C3212680A4392
:1013A000254B0C331A604288038842EA0343224AE1
:1013B0004032847A42F83430C288838842EA034358
:1013C0001D4A4032847A02EBC4025360C27A3AB9B1
:1013D000194A121D12688A43174B1B1D1A6006E03A
:1013E000154A121D12680A43134B1B1D1A6002890D
:1013F00032B9114A143212688A430F4B14331A60FF
:101400000289012A06D10C4A143212680A430A4B97
:1014100014331A60427B012A06D1074A1C32126833
:101420000A43054B1C331A60034A126822F001027A
:10143000014B1A6010BD0000006600401FB500207F
:101440008DF80A008DF80B0001208DF80C000020AB
:10145000ADF80000ADF80200ADF80400ADF80600EC
:10146000ADF8080001208DF80D006846FFF762FF17
:1014700000220221014800F0B5F81FBD00640040C1
:1014800008B50121052001F0E1F84FF40060ADF846
:10149000000048208DF803006946094800F018FC58
:1014A0004FF48050ADF8000003208DF802001820A2
:1014B0008DF803006946024800F00AFC08BD0000F0
:1014C0000008014070B504460D46002660692840BA
:1014D000002871D0B5F5807F5CD010DC082D35D0A8
:1014E00006DC012D20D0022D24D0042D72D127E05E
:1014F000102D31D0202D35D0402D6BD138E0B5F5F1
:10150000004F60D009DCB5F5007F49D0B5F5806F9C
:101510004CD0B5F5006F5DD14FE0B5F5803F2DD0D3
:10152000B5F5003F56D12FE0A0682D4900F0A4FB8F
:10153000064651E0E068032100F09EFB06464BE0C2
:10154000E068082100F098FB064645E0E0681021BD
:1015500000F092FB06463FE02069032100F08CFB7F
:10156000064639E02069082100F086FB064633E094
:101570002069102100F080FB06462DE060680821FC
:1015800000F07AFB064627E06068102100F074FB4B
:10159000064621E0A069012100F06EFB06461BE033
:1015A000A069022100F068FB064615E0A06904214D
:1015B00000F062FB06460FE00FE0A069702100F02A
:1015C0005BFB064608E06068042100F055FB064618
:1015D00002E0FFE7002600BF00E00026304670BDB5
:1015E000010101001AB143690B43436102E0436901
:1015F0008B434361704730B50246002000231468D6
:1016000024F002041460146844F00104146000E043
:101610005B1C546804F001041CB94FF6FF74A3422C
:10162000F6D1546804F001040CB900206CE08C7908
:10163000012C04D1146844F08004146003E01468A1
:1016400024F080041460CC79012C04D1146844F097
:101650004004146003E0146824F0400414600C7A21
:10166000012C04D1146844F02004146003E01468D1
:1016700024F0200414604C7A012C04D1146844F046
:101680001004146003E0146824F0100414608C7AD1
:10169000012C04D1146844F00804146003E01468B9
:1016A00024F008041460CC7A012C04D1146844F0AE
:1016B0000404146003E0146824F0040414608C78BB
:1016C000A407CD7844EA05640D7944EA05444D79D0
:1016D00044EA05540D886D1E2C43D461146824F02F
:1016E00001041460002300E05B1C546804F0010452
:1016F0001CB14FF6FF74A342F6D1546804F0010404
:101700000CB1002000E0012030BD00000EB5012129
:10171000480600F07BFF1248FFF7F0FD684600F036
:101720007DF900208DF806008DF807008DF808007F
:101730008DF809008DF80A008DF80B008DF8020075
:101740008DF803000C208DF8040001208DF80500B1
:101750000920ADF8000069460148FFF74CFF0EBDB7
:101760000064004008B514208DF8000001208DF8B9
:1017700003008DF8010000208DF80200684600F09B
:10178000F7FE08BD0024B4E000235A1E194659484C
:10179000006802F0CFFD00205749086048600872D9
:1017A0008872C874002405E0002153480B300155AD
:1017B000601CC4B2082CF7DB4F4A00214F4800F0F0
:1017C000B5F84D4840684E49884218D14A48007AD9
:1017D000042814D14848807A082810D1002406E053
:1017E00045480B30005D47490855601CC4B2082CC1
:1017F000F6DB02214448006802F085FC76E03E48B2
:1018000040684249884218D13B48007A042814D1E4
:101810003948807A082810D1002406E036480B3079
:10182000005D3B490855601CC4B2082CF6DB04215E
:101830003548006802F067FC58E02F484068354999
:10184000884218D12C48007A042814D12A48807A7A
:10185000082810D1002406E027480B30005D2E49EF
:101860000855601CC4B2082CF6DB08212648006825
:1018700002F049FC3AE0204840682849884218D1E3
:101880001D48007A042814D11B48807A082810D1FA
:10189000002406E018480B30005D21490855601C03
:1018A000C4B2082CF6DB10211748006802F02BFCAC
:1018B0001CE0114840681B49884217D10E48007A45
:1018C000042813D10C48807A08280FD1002406E0A0
:1018D00009480B30005D14490855601CC4B2082C3F
:1018E000F6DB20210848006802F00DFC0A2002F017
:1018F00055FA49E71C000020F80E00200064004063
:101900000800FF0C75000020140000200801FF0CE7
:101910007D0000200802FF0C850000200803FF0C5A
:101920008D000020F5FFEF189500002010B500F5A0
:10193000D87303EB01131B6803F004031372137ACB
:1019400053B900F5D87303EB01131B6840F2FF7421
:1019500004EA5353136009E000F5D87303EB011355
:101960001B686FF0604404EAD303536000F5D8733A
:1019700003EB01131B6803F00203537200F5D873E5
:1019800003EB01135B6803F00F03937200F5D87348
:1019900003EB01135B681B0AD37400F5D87303EBE8
:1019A00001139B68D37200F5D87303EB01139B6896
:1019B0001C0A147300F5D87303EB01139B681C0C0D
:1019C000547300F5D87303EB01139B681B0E9373DC
:1019D00000F5D87303EB0113DB68D37300F5D873FC
:1019E00003EB0113DB681C0A147400F5D87303EBD6
:1019F0000113DB681C0C547400F5D87303EB01135E
:101A0000DB681B0E937421B9C36843F02003C360E5
:101A100003E0036943F02003036110BD00218171DD
:101A2000C171017241728172C1728170C1700321F2
:101A300001710221417101210180704710B50246F8
:101A40000020936803F08063B3F1806F00D110E051
:101A5000936803F00063B3F1006F01D1012008E047
:101A6000936803F08053B3F1805F01D1022000E05E
:101A70000420042874D002F5C07303EB00131B6824
:101A800003F0010402F5C07303EB00131C600B7A32
:101A90007BB94B7A0C8843EA445302F5C07404EBDB
:101AA00000142468234302F5C07404EB001423607F
:101AB00010E00B7A4C6843EAC4034C7A234302F5E6
:101AC000C07404EB00142468234302F5C07404EBD3
:101AD000001423608B7A03F00F038B7202F5C0733E
:101AE00003EB00135B6823F00F0402F5C07303EBF4
:101AF00000135C6002F5C07303EB00135B688C7A23
:101B0000234302F5C07404EB001463608B7B1C0656
:101B10004B7B44EA03440B7B44EA0323CC7A234304
:101B200002F5C07404EB0014A3608B7C1C064B7C94
:101B300044EA03440B7C44EA0323CC7B234302F5B1
:101B4000C07404EB0014E36002F5C07303EB0013F0
:101B50001B6843F0010402F5C07303EB00131C6023
:101B600010BD000010B50246002321B1012907D0A5
:101B700002290FD109E090681D4C00EA04030BE034
:101B800090681C4C00EA040306E090681A4C00EAD6
:101B9000040301E0002300BF00BF184C181BA34240
:101BA00016D007DC83B16FF08060184470B1022852
:101BB00018D111E0B0F5007F10D0114C204448B18D
:101BC000B0F5003F0ED10BE002230DE000230BE047
:101BD000002309E0002307E0012305E0012303E0DF
:101BE000012301E0002300BF00BFD8B210BD0000F8
:101BF00003000004000300080000031000010008B7
:101C00000001FFF72DE9F04186B0074688461546EA
:101C1000002400200190029704208DF80C00002081
:101C20008DF80D008DF80E5000BF05E018F8041077
:101C30000DF10F000155641CAC42F7D301A90D480A
:101C4000FFF7FCFE0646002400E0641C314609480C
:101C5000FFF788FF18B940F6FF708442F5D340F6CD
:101C6000FF70844203D3002006B0BDE8F08101205C
:101C7000FAE70000006400400246002002EA010387
:101C80000BB1012000E000207047704770B504469A
:101C9000042000F0D9FD0C48047025464FF47A70FA
:101CA00045430120094908804FF0E020006940F0D9
:101CB00002004FF0E021086108464561006940F0EC
:101CC0000100086170BD0000BE000020C0000020BF
:101CD0002DE9F041024600250026002000230024C3
:101CE000002791F803C00CF00F0591F803C00CF029
:101CF000100CBCF1000F03D091F802C04CEA0505AE
:101D000091F800C0BCF1000F31D0146800202BE026
:101D10004FF0010C0CFA00F3B1F800C00CEA030616
:101D20009E4220D183004FF00F0C0CFA03F7BC4306
:101D300005FA03FC4CEA040491F803C0BCF1280F37
:101D400006D14FF0010C0CFA00FCC2F814C00AE0F6
:101D500091F803C0BCF1480F05D14FF0010C0CFA0B
:101D600000FCC2F810C0401C0828D1D31460B1F8A0
:101D700000C0BCF1FF0F34DD546800202EE000F1FC
:101D8000080C4FF0010808FA0CF3B1F800C00CEA97
:101D900003069E4221D183004FF00F0C0CFA03F78B
:101DA000BC4305FA03FC4CEA040491F803C0BCF1FF
:101DB000280F05D100F1080C08FA0CF8C2F81480BD
:101DC00091F803C0BCF1480F07D100F1080C4FF0A7
:101DD000010808FA0CF8C2F81080401C0828CED37D
:101DE0005460BDE8F081000002A000F0EFFF00BFEA
:101DF000FEE70000486172644661756C745F48617B
:101E00006E646C65720D0A00FEB500240025002684
:101E10008048006880490968451A642D01DD012663
:101E20000CE005F16400002803DB642D01DC0226D0
:101E300004E005F16400002800DA0326314677A0AB
:101E400000F0C4FF012E04D0022E5DD0032E7DD100
:101E5000AAE077480078012832D100BF6E480068B8
:101E6000322829DB7348B0F900006B4909688842C1
:101E70001ADD002070490870084601680091416829
:101E8000019180686D4B02460290009800F040FF7F
:101E900004462CB9082269496948FFF7B3FE044695
:101EA0000F2001F07BFFD9E75B48008800B2624950
:101EB0004881322001F072FF00205D4908700EE079
:101EC00055480068322805DB5348008800B25A495B
:101ED000488104E000204F4908605749087056487F
:101EE00001680091416801918068544B024602905C
:101EF000009800F00DFF04462CB908224F495048C5
:101F0000FFF780FE044683E04248006842490968C2
:101F1000884225DD3F480068322805DB3D480088BF
:101F200000B24549488104E000203A49086042492E
:101F300008704148016800914168019180683F4BF9
:101F400002460290009800F0E3FE00E05FE00446E5
:101F50004CBB082239493A48FFF754FE044622E0B8
:101F60002D480068322805DB2B48008800B2324932
:101F7000488104E00020274908602F4908702E4856
:101F8000016800914168019180682C4B02460290E3
:101F9000009800F0BDFE04462CB9082227492848C5
:101FA000FFF730FE044633E01B480068322811DB9F
:101FB0002048B0F9000018490968884204DD1D482E
:101FC00000881D4948810DE01348008800B21A4975
:101FD000488107E001201649087000200D4908607B
:101FE00015490870144801680091416801918068A2
:101FF000124B02460290009800F08AFE04462CB96B
:1020000008220E490E48FFF7FDFD044600E000BF20
:1020100000BFFEBD44000020400000204D6F746FE3
:10202000725F737461747573203D2025640D0A001E
:102030004C000020180F00200C0F00204D00002045
:10204000EF08FF0C2DE9FC4781460C464FF0000AD3
:102050002178607801EB0020A0F5685098380FFADD
:1020600080FAA9F800A0A178E07801EB0020A0F5A3
:10207000985088380FFA80FAA9F802A0227961797D
:1020800002EB0120FEF778FA0746164A164BFEF7D8
:1020900084F9054600221346FEF7D8F8CDE9000181
:1020A000FEF788FA0FFA80FAA9F804A0A079C0F325
:1020B000001089F80600A079C0F3401089F80700E5
:1020C000A079C0F3801089F80800E07900F00F00D3
:1020D00089F80900E079000989F80A000020BDE8C4
:1020E000FC8700009A9999999999B93F08B50026FB
:1020F000002426E04FF0FF3001231A460221009011
:102100001048006802F048F8054605F00200022871
:1021100014D1002405E00C48005D0C490855601CF2
:10212000C4B2082CF7DB09490948FFF78BFF0646C4
:1021300026B1012E02D107A000F048FE0D2001F0CB
:102140002DFED7E714000020750000205500002068
:10215000180F002053544154555331204E4F210D38
:102160000A00000010B502460023087828381070D5
:102170004878283850708C78C87804EB002003B277
:1021800053800C79487904EB002003B2938088795E
:1021900000F00F00042803DD887900F00F00907133
:1021A000C8790009D071002010BD000008B50024D6
:1021B000002627E04FF0FF3001231A46042100904B
:1021C0001148006801F0E8FF054605F00400042806
:1021D00014D1002405E00D48005D0D490855601C30
:1021E000C4B2082CF7DB0A490A48FFF7BBFF0646D2
:1021F00026B1012E02D108A000F0E8FD40F28F10B8
:1022000001F0CCFDD6E70000140000207D00002086
:102210005D0000209E00002053544154555332204D
:102220004E4F210D0A0000002DE9FC4781460C4667
:102230004FF0000AA278E17802EB0120FEF79CF94A
:102240001C4A1D4BCDE90001FEF7A7F80546002208
:102250001A4BFEF79CF80746FEF7ACF90FFA80FA26
:10226000A9F800A02279617902EB0120FEF784F938
:102270000746104A104BFEF790F805460022134619
:10228000FDF7E4FFCDE90001FEF794F90FFA80FABB
:10229000A9F802A0A179E07900F00F0001EB00207D
:1022A000A9F80400E079000989F806000020BDE8DB
:1022B000FC8700009A9999999999B93F00408F40FD
:1022C00008B50024002627E04FF0FF3001231A460E
:1022D000082100901148006801F05EFF054605F0F6
:1022E0000800082814D1002405E00D48005D0D49C0
:1022F0000855601CC4B2082CF7DB0A490A48FFF7EE
:1023000093FF064626B1012E02D108A000F05EFD23
:1023100040F22B1001F042FDD6E70000140000202F
:102320008500002065000020A60000205354415481
:10233000555333204E4F210D0A0000000246087805
:10234000136860F30003136008784308106863F3B0
:102350004100106008788308106863F38200106001
:102360000878C308106863F3C30010600878030995
:10237000106863F30410106008784309106863F371
:102380004510106008788309106863F386101060A8
:102390000878C309106863F3C710106048781368A1
:1023A00060F30823136048784308106863F34920FA
:1023B000106048788308106863F38A2010604878BA
:1023C000C308106863F3CB201060487803091068D5
:1023D00063F30C30106048784309106863F34D30A4
:1023E000106048788309106863F38E301060487875
:1023F000C309106863F3CF3010608878136860F306
:102400001043136088784308106863F351401060EC
:1024100088788308106863F3924010608878C30856
:10242000106863F3D340106088780309106863F381
:102430001450106088784309106863F35550106099
:1024400088788309106863F3965010608878C30910
:10245000106863F3D7501060C878136860F318638E
:102460001360C8784308106863F359601060C87837
:102470008308106863F39A601060C878C308106816
:1024800063F3DB601060C8780309106863F31C70A5
:102490001060C8784309106863F35D701060C878F5
:1024A0008309106863F39E701060C878C3091068D0
:1024B00063F3DF7010600879137960F30003137120
:1024C00008794008137960F3410313710879800893
:1024D000137960F3820313710879C008137960F3EC
:1024E000C3031371C87900095071002070470000C0
:1024F00008B50024002626E04FF0FF3001231A46DD
:10250000102100901048006801F046FE054605F0D5
:102510001000102814D1002405E00C48005D0C497F
:102520000855601CC4B2082CF7DB09490948FFF7BD
:1025300005FF064626B1012E02D107A000F046FC99
:10254000C72001F02BFCD7E7140000208D000020ED
:102550006D000020B00000205354415455533420E6
:102560004E4F210D0A00000000BFFEE7704700003B
:1025700070B5002100230F22C47804B3154C2468E1
:1025800004F4E064C4F5E064210AC1F10403CA4024
:10259000447804FA03F184781440214309010E4C75
:1025A0000678A155047804F01F050124AC40057895
:1025B0006D11AD0005F1E025C5F8004109E0047892
:1025C00004F01F050124AC40044D0678761145F84F
:1025D000264070BD0CED00E000E400E080E100E08A
:1025E00002490143024A1160704700000000FA05E9
:1025F0000CED00E001460020034A506820F4404002
:1026000008435060704700000010024029B1064A9C
:10261000D2690243044BDA6104E0034AD26982437F
:10262000014BDA61704700000010024029B1064AF0
:1026300012690243044B1A6104E0034A126982439F
:10264000014B1A61704700000010024029B1064A90
:1026500092690243044B9A6104E0034A92698243FF
:10266000014B9A61704700000010024029B1064AF0
:10267000D2680243044BDA6004E0034AD268824322
:10268000014BDA60704700000010024030B50021B5
:102690000022002400232D4D6D6805F00C0121B1AE
:1026A000042905D0082923D105E0294D056022E041
:1026B000274D05601FE0254D6D6805F47012234D10
:1026C0006D6805F48034022505EB92421CB9214D5A
:1026D000554305600BE01D4D6D6805F400351DB1D7
:1026E0001C4D5543056002E0194D5543056002E05D
:1026F000174D056000BF00BF144D6D6805F0F00177
:102700000909154D6B5C0568DD4045600F4D6D682E
:1027100005F4E061090A104D6B5C4568DD40856099
:102720000A4D6D6805F46051C90A0B4D6B5C456834
:10273000DD40C560054D6D6805F44041890B074DCE
:102740006B5CC568B5FBF3F5056130BD0010024058
:1027500000127A0000093D00000000201000002057
:1027600010B500F001F810BD0CB5002001900090EC
:102770003348006840F480303149086000BF304879
:10278000006800F4003000900198401C019000980F
:1027900018B90198B0F5A06FF1D12948006800F48C
:1027A000003010B10120009001E00020009000985E
:1027B000012843D12348006840F0100021490860F7
:1027C0000846006820F0030008600846006840F0F2
:1027D000020008601A484068194948600846406885
:1027E00048600846406840F4806048600846406899
:1027F00020F47C1048600846406840F4E8104860C7
:102800000846006840F08070086000BF0C4800680F
:1028100000F000700028F9D00948406820F003005B
:10282000074948600846406840F00200486000BF21
:102830000348406800F00C000828F9D10CBD0000E6
:102840000010024000200240042808D14FF0E0218F
:10285000096941F004014FF0E022116107E04FF0F7
:10286000E021096921F004014FF0E0221161704775
:1028700010B502F007F8012801D001F00BFD10BDE2
:1028800010B51348006840F001001149086008467F
:102890004068104908400E494860084600680E49E3
:1028A00008400B4908600846006820F48020086052
:1028B0000846406820F4FE0048604FF41F0088601E
:1028C000FFF74EFF4FF000600449086010BD0000A4
:1028D000001002400000FFF8FFFFF6FE08ED00E0E8
:1028E00021B1828942F40052828104E082894DF64E
:1028F000FF731A40828170472DE9F04786B0054684
:102900000E460024A24600BFA1460027B08900B1B0
:1029100000BF2F462C8A4CF6FF700440F088044319
:102920002C82AC894EF6F3100440B08831890843FC
:10293000718908430443AC81AC8A4FF6FF400440E0
:10294000B0890443AC8201A8FFF7A0FE1F4887426C
:1029500002D1DDF810A001E0DDF80CA0A88900F498
:10296000004040B10AEBCA0000EB0A103168490090
:10297000B0FBF1F807E00AEBCA0000EB0A1031687F
:102980008900B0FBF1F86420B8FBF0F004012009E5
:10299000642101FB1089A88900F4004040B1322075
:1029A00000EBC900B0FBF1F000F00700044308E0C1
:1029B000322000EB09106421B0FBF1F000F00F00B1
:1029C00004432C8106B0BDE8F087000000380140C8
:1029D00038B5002402211948FEF774FD00282CD0D8
:1029E00002211648FEF72CFC0020154908604860BB
:1029F00008728872C87400BF05E0002110480B30CF
:102A00000155601CC4B2082CF7DB0D4A00210B48AD
:102A1000FEF78CFF0020009069460A48006801F02C
:102A200061FE05464DB1009838B14FF0805006491F
:102A30000860BFF34F8FBFF36F8F38BD0064004055
:102A4000F80E00201C00002004ED00E000BFFEE7AF
:102A500086B04FF0000A002005900490C7E00221E4
:102A60006348FEF7B0F80446FDF781FD0590059830
:102A7000FDF7D8FD80464FF066325E4BFDF78DFCCA
:102A8000064600225C4BFDF7FAFC0446FDF70EFEFD
:102A900004903AE001205949087000205849087014
:102AA00058490870084601680191416802918068A0
:102AB000554B02460390019800F02AF98246BAF17C
:102AC000000F05D1082250495048FFF79BF8824675
:102AD0000A2001F063F902214548FEF774F8044624
:102AE000FDF745FD05900598FDF79CFD80464FF0EC
:102AF0006632404BFDF751FC064600223E4BFDF787
:102B0000BEFC0446FDF7D2FD04904FF080410498CE
:102B1000FDF7E8FDBED93948007801285DD1384875
:102B2000007818BB01213A48FEF74DF83949098869
:102B3000401A4FF4FA6100FB01FB5846FDF71CFDFB
:102B400080460022344BFDF728FC06460022334B1A
:102B5000FDF795FC04460022314BFDF777FD05D2C9
:102B60000020304908600120254908702448007879
:102B7000012839D12C49B1F90000FDF7FDFC0446CC
:102B80000D4601212248FEF71EF822490988401A05
:102B90004FF4FA6100FB01FB5846FDF7EDFC002203
:102BA0001D4BCDE90201FDF7F8FB064600221B4B49
:102BB000FDF765FC804622462B46FDF75FFD13D2EC
:102BC00000200F4908700D49087000231A46194665
:102BD0001648006801F09CFC06E000231A461946DE
:102BE0001248006801F094FC0E2001F0D7F836E797
:102BF0000028014066660A400000B04048000020FE
:102C0000B80000200C0F00204D000020EF08FF0C42
:102C1000002401404A0000200000F03F00C8A94005
:102C20000000594044000020180F00201800002028
:102C300007B59DF8000001282FDC9DF80100012850
:102C40002BDC9DF80200032827DC9DF802000128F8
:102C500023DB9DF803000F281FDCBDF80400B0F54E
:102C6000805F1ADABDF80600B0F5805F15DABDF9AD
:102C7000080041F2883188420FDCBDF90800494262
:102C800088420ADBBDF90A0043F69821884204DC39
:102C9000BDF90A004942884201DA01200EBD002038
:102CA000FCE7000021E000235A1E19460F48006887
:102CB00001F040FB01200E490870002048700120FF
:102CC00088704FF4FA7088801420C8800020C87083
:102CD0000881FDF785FE0748016807A000F076F837
:102CE000FFF792F8072001F059F8DCE71800002000
:102CF0000C0F0020400000205468726F74746C65E3
:102D00005F5369676E616C203D2025640D0A0000E9
:102D10001FB51C469DE80700FFF78AFF012801D177
:102D200004B010BD0020207020789DF800100843EA
:102D3000207020789DF8011040EA41002070207832
:102D40009DF8021040EA8100207020789DF8031061
:102D500040EA01102070BDF8040060700020A070EF
:102D6000A078BDF80410C1F303210843A070A07837
:102D7000BDF8061001F00F0140EA0110A07000201C
:102D8000E070BDF80600C0F30710E070002020716D
:102D9000BDF808008830207100206071BDF808007F
:102DA00041F288310844000A60710020A071BDF82A
:102DB0000A009830A0710020E071BDF80A0043F6C7
:102DC00098210844000AE0710020A9E70FB4054BE0
:102DD00010B503A9044A029800F018F810BC5DF879
:102DE00014FB0000C52F00083001002002E008C8D5
:102DF000121F08C1002AFAD170477047002001E075
:102E000001C1121F002AFBD1704700002DE9FF4FBE
:102E10008BB09A460F460546002606E025280BD0C3
:102E200052460D9990476D1C761C28780028F5D1E4
:102E30000FB03046BDE8F08F0024A0460122604963
:102E400000E0044315F8013F203B02FA03F008427A
:102E5000F7D128782E2817D115F8010F44F0040473
:102E60002A280ED06FF02F022878A0F1300109290E
:102E70000AD808EB880102EB410100EB01086D1C48
:102E8000F2E757F8048B6D1C287869283ED006DCE1
:102E90000028CDD063280BD0642804D136E07328F5
:102EA00010D075284BD052460D999047761C85E07E
:102EB00017F8040B8DF8000000208DF80100E9469A
:102EC000012003E057F8049B4FF0FF3061074FF0FB
:102ED000000401D40AE0641C44450DDA8442FADBA4
:102EE00019F804100029F6D106E0641C8442FCDBCA
:102EF00019F804100029F8D1264404E019F8010B50
:102F000052460D999047641EF8D257E001CF4FF01A
:102F10000A0B002802DA40422D2102E0210504D5E7
:102F20002B218DF82410012103E0E10705D0202199
:102F3000F7E70DF1200908910CE00021F9E701CF36
:102F40004FF00A0BF9E75946FDF7D6FB01F13002C5
:102F500009F8012D0028F6D1ADEB090000F1200B96
:102F6000600701D44FF00108D84502DDA8EB0B0043
:102F700000E000208046002406E009A85246005DDB
:102F80000D999047641C761C08988442F5DB04E098
:102F9000302052460D999047761CB8F10001A8F1F7
:102FA0000108F5DC05E019F8010B52460D99904730
:102FB000761CBBF10001ABF1010BF4DC6D1C34E7B6
:102FC0000928010000BF054A128802F04002002AC9
:102FD000F9D0C2B2014B1B1D1A8070470038014066
:102FE0000EB5FEF717F90EA0FFF7F0FE13481449CF
:102FF00003220023CDE9002102904FF4807211A139
:10300000144801F017FC144908600846006810B124
:1030100000F0E8FF02E011A0FFF7D8FE00BFFEE7D6
:10302000B7C9D2EDB3B5B6D3B5E7B3B5564355BAC4
:10303000AFCAFDB5F7CAD4210D0A00000C0E00205E
:10304000340700204170705461736B437265617482
:1030500065000000790D000820000020B4B4BDA870
:10306000CAA7B0DC21200D0A000000002DE9F041C4
:1030700005460E461C4807681C480068001D00F005
:1030800091FD50B91948006890F82C100120884033
:1030900017490968814316480160681C38B936B180
:1030A00012480168091D134800F0E0FD1AE07C1980
:1030B0000E4800684460BC4207D20C480168091DF4
:1030C0000D48006800F0B8FD0CE008480168091DD3
:1030D0000A48006800F0B0FD09480068844201D247
:1030E00007480460BDE8F081D8000020C40000203B
:1030F000DC00002044120020CC000020C80000208A
:10310000F400002010B5044600F0BCFD244800681F
:10311000401C234908602348006840B921480460E6
:103120000846006801280DD100F0E2F90AE01E48C7
:10313000006838B91B480068C06AE16A884201D853
:103140001848046019480068401C1849086008467F
:103150000068606594F82C100120884014490968C3
:10316000084313490860E16A01EB8101114A02EB4F
:103170008100211D00F07AFD00F096FD0A480068EC
:1031800068B108480068C06AE16A884207D24FF017
:10319000805009490860BFF34F8FBFF36F8F10BD98
:1031A000D4000020C4000020E0000020F000002037
:1031B000DC000020740F002004ED00E008B500F0F2
:1031C00061FD12480068E8B9114800F025FD11487A
:1031D00000F022FD0E48104908600E480F490860B3
:1031E00000200F4B0F4A102100900A2001F08BF8AD
:1031F000064908600846006820B10BA10348006832
:1032000000F090FD00F050FD08BD00000801002016
:10321000581200206C120020000100200401002040
:1032200080120020D4120020546D72510000000062
:1032300070B523E000F020FF1348006808B90120B2
:1032400000E00020054601F07BFCBDB900F01AFD4E
:103250000D48C068C468201D00F0A4FC0B4800683D
:10326000401E0A4908600A480068401E0849086074
:1032700000F01AFD204600F060F800BF0448006826
:103280000028D7D170BD000030120020D4000020EB
:10329000D000002070B504460D46206C70B1216C42
:1032A000E0680844E0606168E068884201D3206813
:1032B000E0602846226CE168FCF7A4FF70BD2DE9B0
:1032C000F04104460F4615464FF00008A66B206CEF
:1032D00040B9206860BB606801F078FB8046002040
:1032E000606025E07DB93946226CA068FCF78AFF52
:1032F000216CA0680844A060D4E90110884217D36B
:103300002068A06014E03946226CE068FCF77AFF80
:10331000216CE068401AE0602168E068884203D2CE
:10332000216C6068401AE060022D01D106B1761E62
:10333000701CA0634046BDE8F08110B5044694F8C7
:10334000690030B9206B00F0BFFC204600F0BCFCE7
:1033500006E094F86900012802D1204600F0B4FC90
:1033600010BD00000146084A126812680AB901221D
:1033700000E000220A600A6822B9034A1268D26893
:10338000106800E0002070470001002030B54FF4C5
:103390002053174800F007042CB1C01D20F007008F
:1033A000134C041B1B1B0246124C22600024114DBF
:1033B0006C60D018083820F007000F4C2060002403
:1033C0000D4D2D686C600C4D2D682C601146441A13
:1033D0004C60094C24680C60084D4C682C60084D0A
:1033E0004C682C604FF00044064D2C6030BD00004E
:1033F0007413002018010020200100202801002063
:10340000240100202C01002000BFFFF711FF064817
:1034100000680128F9D94FF0805004490860BFF3D3
:103420004F8FBFF36F8FF0E7740F002004ED00E0C3
:103430002DE9F04106460D4617469846069C0DB903
:10344000246000E02760E66325640121204601F046
:103450001FF884F850800020A064BDE8F0812DE9B9
:10346000F05F81460F4690469A460A9E0C9C4FEAB2
:103470008801A522206BFCF7D7FEA8F10100216B83
:1034800001EB800B2BF0070B002507E0795D04F1C1
:1034900034004155785D00B902E06D1C202DF5D354
:1034A00000BF002153200155202E00D31F26E662C5
:1034B000E66500202066201D00F0BBFB04F118002B
:1034C00000F0B7FB2461C6F12000A0616462002017
:1034D000606684F8680052464946584600F006FB8C
:1034E00020600B9808B10B980460BDE8F09F0000C5
:1034F00010B5002407E004EB84010F4A02EB8100C1
:1035000000F08AFB641C202CF5D30C4800F084FBEF
:103510000B4800F081FB0B4800F07EFB0A4800F0EE
:103520007BFB0A4800F078FB04480949086004481E
:103530000849086010BD0000740F0020F41100203D
:10354000081200201C12002030120020441200201B
:10355000C8000020CC00002010B50146164800E04D
:10356000006803688B42FBD30246436813448B42D6
:1035700004D143684C682344436001460A464B68C3
:1035800013440468A34211D10C4C03682468A3427D
:1035900008D04B680468646823444B6003681B6868
:1035A0000B6005E0054B1B680B6001E003680B60D6
:1035B000884200D0016010BD1801002020010020C9
:1035C0002DE9F04104460D4616461F464FF000080F
:1035D00065602461B5420CD8F01BA169884202D312
:1035E0004FF0010811E0211D0948006800F024FB9C
:1035F0000BE0BE4204D2BD4202D34FF0010804E00A
:10360000211D0448006800F017FB4046BDE8F0812A
:10361000040100200001002070B5054600F032FBD7
:10362000A86B08B9012400E0002400F03DFB20460F
:1036300070BD70B5054600F025FBA86BE96B8842AC
:1036400001D1012400E0002400F02EFB204670BDD3
:103650002DE9F3410D460098846C0027A06BE16BC7
:1036600088421BD294F945602A4669462046FFF7F6
:1036700026FE0746701C60B9606A08B9012000E0A8
:10368000002050B904F1240001F0E2F928B101272B
:1036900003E0701C40B284F8450000BF3846BDE826
:1036A000FC810000F8B505460E4610480068C06869
:1036B000C468201D00F076FAE069012811D1A069E4
:1036C00041192B4632462046FFF77AFF48B10020C9
:1036D00003462A4601460090204601F0D5FA0746E7
:1036E00000BF2046616A8847F8BD00000001002045
:1036F000F0B587B059E00398002805DA04AED6E9A2
:103700000020B168904700BF039800284DDB059C5E
:10371000606908B9012000E0002010B9201D00F008
:1037200041FA02A800F0A2F8054603980A283AD206
:10373000DFE800F00905072527320608262800BF24
:1037400000BF00BF00BF0498A269811803462A4643
:103750002046FFF735FF88B12046616A8847E06957
:1037600001280BD1002000900498A1694218002381
:103770001946204601F088FA074600BF14E000BF52
:1037800012E000BF0498A061A06941192B462A46A7
:103790002046FFF715FF07E094F82C0010B92046EB
:1037A00000F092FA00E000BF00BF00231A4603A910
:1037B0000348006800F0BEFD00289CD107B0F0BDB2
:1037C00008010020F8B505460C4600F055FC684697
:1037D00000F04CF80646009820BB44B9B54206D824
:1037E00001F0AEF931462846FFF75CFF1CE03CB122
:1037F0000E480068006808B9012000E00020044677
:10380000A91B22460A48006800F0A2FA01F098F9C4
:1038100050B94FF0805007490860BFF34F8FBFF396
:103820006F8F01E001F08CF9F8BD00000401002069
:103830000801002004ED00E00A490968096809B997
:10384000012100E0002121B14FF0FF31064A116053
:1038500006E004490968C968C868034A41681160FC
:1038600070470000C8000020F400002070B5044636
:1038700001F018F8054607480068854204D200F0B8
:103880000BF80120206001E0002020600148056065
:10389000284670BD100100202DE9F84326E01D48A0
:1038A0000068C06805681B480068C068C468201DBF
:1038B00000F078F92046616A8847E069012815D14F
:1038C000A0694619AE4207D966602461211D1148DE
:1038D000006800F0B1F909E0002003462A460146DD
:1038E0000090204601F0D0F9804600BF09480068EA
:1038F000006808B9012000E000200028CFD005486A
:103900000768054800680349086003480760BDE888
:10391000F8830000000100200401002000BFBF2048
:1039200080F31188BFF34F8FBFF36F8F00BF00BFCD
:10393000FEE710B50346002022B903EA010434B1C2
:10394000012004E003EA01048C4200D1012010BDF3
:1039500008B500BF6846FFF705FD044620460099FC
:10396000FFF730FFFFF7C4FEF4E770B5044600F040
:1039700089F994F945501AE0A06C38B1002120462D
:10398000FFF766FE88B100F089FA0EE0606A08B9B8
:10399000012000E0002038B904F1240001F058F8BB
:1039A00018B100F07BFA00E003E0681E45B2002D7C
:1039B000E2DC00BFFF2084F8450000F075F900F05C
:1039C00061F994F9445010E0206908B9012000E041
:1039D000002048B904F1100001F03AF808B100F0F5
:1039E0005DFA681E45B200E001E0002DECDC00BF8E
:1039F000FF2084F8440000F057F970BD2DE9F04134
:103A000005464FF0000800F037FB2B48006808B966
:103A1000FFF7BCFC294800682840002847D145B181
:103A2000083505F0070020B105F00700C0F10800D7
:103A30000544002D3BD022480068854237D8214EEE
:103A40003046046801E0264624686068A84202D235
:103A500020680028F7D118480068844227D03068D1
:103A600000F10808206830606068401B102807D902
:103A700067196068401B786065603846FFF76CFD29
:103A80000F4960680968081A0D490860084600680F
:103A90000D490968884203D2094800680A4908604C
:103AA000064960680968084360600020206001F0F2
:103AB00047F84046BDE8F081200100202C0100209D
:103AC0002401002018010020280100200648006879
:103AD00030B10549096801F16000096E491C0160B7
:103AE0000148006870470000C4000020001F4FF02C
:103AF00080730360001F21F001030360001F034B6C
:103B00000360143802602038704700001D39000837
:103B100010B586B00446012144F20400FEF796FD7C
:103B20004FF40070ADF8140003208DF81600182033
:103B30008DF8170005A91948FEF7CAF84FF4806000
:103B4000ADF8140004208DF8170005A91348FEF7FE
:103B5000BFF825208DF8000001208DF8010000201D
:103B60008DF802008DF803006846FEF701FD019410
:103B70000020ADF80800ADF80A00ADF80C00ADF873
:103B800010000C20ADF80E0001A90548FEF7B4FEA8
:103B900001210348FEF7A4FE06B010BD0008014055
:103BA0000038014001460A69D1E901309860D1E945
:103BB000010358605068884201D188685060002035
:103BC00008611068401E1060106870470549096858
:103BD000886904490968C96AC1F12001014A12686B
:103BE00091617047C4000020034B0360034B0B60DE
:103BF0008023136070470000340D00203401002042
:103C0000034B0360034B0B604FF4807313607047EA
:103C1000A00D00203403002000F1080141604FF0A6
:103C2000FF31816000F10801C16001610021016084
:103C3000704700210161704710B502460B685C1C9B
:103C40000CB9106907E002F1080000E04068446820
:103C500024689C42FAD944684C604C68A160886032
:103C600041600A611468641C146010BD42684A60B7
:103C700093688B60936859609160086103685B1C6E
:103C80000360704700BFBF2080F31188BFF34F8FE0
:103C9000BFF36F8F00BF03480068401C01490860F4
:103CA000704700001401002006480068401E0549C6
:103CB00008600846006820B9002080F3118800BF22
:103CC00000BF70471401002070B506463546D6B1D6
:103CD000083D2C460C4960680968084098B1206886
:103CE00088B90949606809688843606000F0C4F9D0
:103CF0000649606809680844044908602046FFF7DF
:103D00002BFC00F01DFF70BD2C01002024010020C1
:103D100003484FF0E0214861072008617047000028
:103D20003F190100024600200BE0084B53F83030E9
:103D300033B9064B43F8301003EBC0035A6002E07E
:103D4000401C0A28F1D300BF70470000240F002058
:103D50002DE9F04105460E4617462C46FFF792FF27
:103D600094F94400401C10B9002084F8440094F9F0
:103D70004500401C10B9002084F84500FFF794FF6F
:103D8000A06B28B93A46314604F1240000F09CF8B3
:103D90002046FFF7EAFDBDE8F081000070B504465B
:103DA000002544B100F068F900212046FFF75EF9D4
:103DB00000F0C6FE05463DB94FF08050034908604B
:103DC000BFF34F8FBFF36F8F70BD000004ED00E0B5
:103DD00070B50546FFF756FF15B92748006800E0A3
:103DE00028460446201DFFF7DDFE78B9E06A00EBA7
:103DF0008000224951F8200040B994F82C1001208D
:103E000088401F49096881431D480160A06A18B1B4
:103E100004F11800FFF7C6FE1A480068401C194953
:103E2000086015480068844209D1211D1648FFF733
:103E30001DFF16480068401C1449086009E014483A
:103E40000068401E124908602046FFF776FAFFF727
:103E5000F3FCFFF729FF0F48006858B106480068D7
:103E6000844207D14FF080500B490860BFF34F8F59
:103E7000BFF36F8F70BD0000C4000020740F0020DE
:103E8000DC000020F000002030120020D0000020D4
:103E9000D4000020E000002004ED00E001200149F2
:103EA00008607047E800002070B505460C460548DC
:103EB000016818312846FFF7BFFE01212046FFF7B1
:103EC000D5F870BDC400002070B506460D461446F6
:103ED0000648016818313046FFF7C8FE0CB14FF0B4
:103EE000FF3521462846FFF7C1F870BDC400002009
:103EF00070B506460C46154644F000400649096870
:103F000088610548016818313046FFF7AFFE01218E
:103F10002846FFF7ABF870BDC400002070B5054619
:103F20002C46002D4BD02649E06A0968C96A8842B0
:103F300045D2A06900F0004028B921480068C06A55
:103F4000C0F12000A061E16A01EB81011D4A02EB92
:103F500081016069884201D1012000E0002050B356
:103F6000201DFFF71FFE78B9E06A00EB80001549BD
:103F700051F8200040B994F82C10012088401249D3
:103F800009688143104801600D480068C06AE0621A
:103F900094F82C10012088400B49096808430A490D
:103FA0000860E16A01EB8101064A02EB8100211DF4
:103FB000FFF75CFE03E002480068C06AE06270BD83
:103FC000C4000020740F0020DC00002003490968B1
:103FD000016003490968416070470000EC0000205F
:103FE000D800002010B586B000200590049003AAE8
:103FF00004A905A8FFF7F8FD0022DDE90410134627
:10400000CDE90021029015A11648039A00F012FC98
:10401000154908600846006808B1012400E0002442
:10402000012C02D100F000FE0446012C14D100BF87
:10403000BF2080F31188BFF34F8FBFF36F8F00BF96
:104040004FF0FF300949086001200949086000204D
:104050000849086000F004F906B010BD49444C4519
:104060000000000009340008F8000020F4000020DF
:10407000E0000020D800002002480068401C0149F0
:1040800008607047FC0000201248006818B1012049
:10409000114908601DE000200F4908600F480068C2
:1040A000B0FA80F0C0F11F0101EB81020C4B03EB71
:1040B000820042685268426000F1080243689342FD
:1040C00002D14268526842604268D268054B1A6069
:1040D00000BF7047FC000020E8000020DC0000204A
:1040E000740F0020C400002010B52020FFF786FCCC
:1040F000044634B100202060201DFFF78DFD002014
:104100002077204610BD2DE9FE4F06468946002047
:1041100001903446009004F1040B0BF1080002906A
:10412000FFF7AAFFDBF80C70206840EA0900206066
:1041300026E0D7F804A03D680020009005F07F48F5
:1041400025F07F4508F0806028B92068284040B1FC
:104150000120009005E020682840A84201D10120FC
:104160000090009858B108F0807010B10198284371
:104170000190206840F00071384600F0A9FC5746D5
:1041800002988742D5D1206801998843206000F0C9
:10419000D7FC2068BDE8FE8F2DE9FF5F80460E4604
:1041A00017469946DDF838A044464FF0000B002032
:1041B0000190FFF761FF206800904A463146009861
:1041C000FFF7B7FB0390039830B1009DDA46BFB10B
:1041D0002068B043206013E0BAF1000F01D1009DC8
:1041E0000EE00FB14BF0807BB9F1000F01D04BF026
:1041F000806B46EA0B015246201DFFF779FE002531
:1042000000F09EFC0290BAF1000F22D0029838B95B
:104210004FF0805011490860BFF34F8FBFF36F8F8D
:10422000FFF7D4FC054605F0007080B9FFF72AFDC2
:1042300025684A4631462846FFF77BFB18B117B17F
:104240002068B0432060FFF72FFD0020019025F08B
:104250007F45284604B0BDE8F09F000004ED00E073
:1042600010B50A48006840F47F0008490860084615
:10427000006840F07F400860FFF74AFD00200449D5
:104280000860FBF773FF002010BD000020ED00E088
:104290001401002010B500BFBF2080F31188BFF3C8
:1042A0004F8FBFF36F8F00BF00F002FB18B14FF0CC
:1042B00080500449086000BF002080F3118800BFCF
:1042C00010BD000004ED00E02DE9F84307460D465F
:1042D00090460DB9002601E007FB05F606F15400F3
:1042E000FFF78CFB04465CB104F15409002084F80C
:1042F000460043464A46294638460094FFF798F858
:104300002046BDE8F8832DE9F84306460F4690465F
:104310001D46DDF820902C464CB1012084F8460063
:104320004B464246394630460094FFF781F8204616
:10433000BDE8F8832DE9FF4782B0054689461E4651
:104340004FF0000A2C4600BFFFF79CFCD4F83880E1
:10435000B8F1000F3BD0E76849462046FEF79AFFC8
:10436000DEB9A8F10100A063206810B9FFF7AEFB29
:104370006060206908B9012000E0002008BB04F15A
:10438000100000F065FBE0B14FF080503F4908603D
:10439000BFF34F8FBFF36F8F13E0E760606A08B918
:1043A000012000E0002060B904F1240000F050FB7F
:1043B00038B14FF0805035490860BFF34F8FBFF3DD
:1043C0006F8FFFF771FC012006B0BDE8F0870498FD
:1043D00018B9FFF769FC0020F6E7BAF1000F04D125
:1043E0006846FFF7F3FD4FF0010AFFF75DFCFFF7AA
:1043F00043FEFFF747FC94F94400401C10B900202D
:1044000084F8440094F94500401C10B9002084F859
:104410004500FFF749FC04A9684600F0ABF940BB32
:104420002046FFF7F9F8F0B1206830B9FFF72AFC11
:104430006068FFF773FDFFF737FC04F1240004996F
:10444000FFF732FD2046FFF790FA00F079FB0028D5
:104450007FF47AAF4FF080500C490860BFF34F8F64
:10446000BFF36F8F70E72046FFF77FFA00F068FB1D
:104470006AE72046FFF779FA00F062FB2046FFF773
:10448000CBF80028EED000209EE7000004ED00E00D
:1044900070B505460E462C46FFF7F4FBD4E90F1223
:1044A000206801FB020060600020A0632068A0601B
:1044B000E06B401E226C216800FB0210E060FF20D0
:1044C00084F8440084F845009EB9206908B90120A9
:1044D00000E00020A8B904F1100000F0B9FA80B1A2
:1044E0004FF0805009490860BFF34F8FBFF36F8FC3
:1044F00007E004F11000FFF78FFB04F12400FFF741
:104500008BFBFFF7D1FB012070BD000004ED00E044
:104510002DE9FF4383B0074688461D464FF000094A
:104520003C4600BFFFF7AEFBA06BE16B884201D3B6
:10453000022D38D12A4641462046FEF7C0FE0646E7
:10454000A06C68B129462046FFF782F828B34FF0E7
:1045500080503C490860BFF34F8FBFF36F8F1CE062
:10456000606A08B9012000E0002068B904F1240065
:1045700000F06EFA88B14FF0805032490860BFF306
:104580004F8FBFF36F8F08E03EB14FF080502D4941
:104590000860BFF34F8FBFF36F8FFFF785FB0120DC
:1045A00007B0BDE8F083059818B9FFF77DFB002040
:1045B000F6E7B9F1000F04D101A8FFF707FD4FF0AE
:1045C0000109FFF771FBFFF757FDFFF75BFB94F95C
:1045D0004400401C10B9002084F8440094F94500C0
:1045E000401C10B9002084F84500FFF75DFB05A9C9
:1045F00001A800F0BFF8F0B92046FFF71AF8A0B103
:1046000004F110000599FFF74FFC2046FFF7ADF9C4
:1046100000F096FA002885D14FF0805009490860D3
:10462000BFF34F8FBFF36F8F7CE72046FFF79DF9F5
:1046300000F086FA76E72046FFF797F900F080FA57
:104640000020ADE704ED00E02DE9F05F06468A4664
:1046500015461F46344600BFBF21EFF3118081F39A
:104660001188BFF34F8FBFF36F8F00BF8146A06BE0
:10467000E16B884201D3022F2BD194F945B03A4621
:1046800051462046FEF71BFE0BF10100C8B9A06C95
:1046900040B139462046FEF7DBFFB8B1B5B1012085
:1046A000286013E0606A08B9012000E0002068B9C2
:1046B00004F1240000F0CCF940B13DB101202860A4
:1046C00004E00BF1010040B284F845004FF001080E
:1046D00001E04FF0000800BF89F3118800BF404699
:1046E000BDE8F09F2DE9F04706460D46344600BF71
:1046F000BF21EFF3118081F31188BFF34F8FBFF318
:104700006F8F00BF8046D4F83890E06B484528D9B9
:1047100094F945A009F10100A0630AF10100C8B9AC
:10472000A06C40B100212046FEF792FFB8B1B5B1B0
:104730000120286013E0606A08B9012000E0002031
:1047400068B904F1240000F083F940B13DB10120C3
:10475000286004E00AF1010040B284F84500012716
:1047600000E0002700BF88F3118800BF3846BDE88D
:10477000F087000070B504460D46FFF783FA124833
:1047800002682868401C08B9002619E00F49206813
:104790000968884204D06068904201D801260FE081
:1047A0006068101A2968884209D228686168511A1D
:1047B000401A28602046FFF709FC002600E0012689
:1047C000FFF772FA304670BDD8000020EC000020E0
:1047D0002DE9FF4F85B0804689461746DDE912ABCB
:1047E000B800FFF70BF9064656B16C20FFF706F943
:1047F00004460CB1266304E03046FFF765FA00E09A
:1048000000248CB1002084F86900CDE900ABCDE92B
:1048100002403A4649464046089BFEF720FE2046A5
:10482000FEF770FC012501E04FF0FF35284609B086
:10483000BDE8F08F2DE9F04F85B0074688469146D8
:104840009A46DDE90EB6109CACB1A6B125462E63A2
:10485000022085F86900002004A953464A46CDE9A4
:1048600000B1CDE9025041463846FEF7F8FD284632
:10487000FEF748FC01E000200490049805B0BDE874
:10488000F08F00000549096809B9012005E00449D5
:10489000096809B9022000E000207047E00000200C
:1048A000FC0000200149086870470000D800002083
:1048B0002DE9F04100273A480068002863D13948C3
:1048C0000068451C374805608DB93748D0F800802E
:1048D00036480068344908603448C0F800803448DD
:1048E0000068401C32490860FEF7A6FF00BF31484F
:1048F000006885423BD300BF2B480068006808B9B8
:10490000012000E0002020B14FF0FF30294908606D
:104910002CE025480068C068C4686668B54202D2C9
:104920002448066022E0201DFFF73CF9A06A18B178
:1049300004F11800FFF736F994F82C100120884094
:104940001D49096808431C490860E16A01EB8101BF
:104950001A4A02EB8100211DFFF788F91849E06A25
:104960000968C96A8842C7D30127C5E700BF144850
:104970000068C06A00EB8000104951F8200001284F
:1049800000D9012704E00F480068401C0D49086069
:104990000D48006800B101273846BDE8F0810000ED
:1049A000FC000020D8000020C8000020CC0000201F
:1049B000EC000020F4000020DC000020740F002038
:1049C000C4000020E4000020E800002070B5054687
:1049D0002C460026ADB3206E401E2066E16DE06AD5
:1049E00088422ED0206E60BB201DFFF7DBF878B91F
:1049F000E06A00EB8000144951F8200040B994F8B7
:104A00002C10012088401149096881430F4801603A
:104A1000E06DE062E06AC0F12000A06194F82C1023
:104A20000120884009490968084308490860E16A8B
:104A300001EB8101044A02EB8100211DFFF716F909
:104A40000126304670BD0000740F0020DC000020FD
:104A500070B50646F068C46804F11800FFF7A2F8C4
:104A600015480068A8B9201DFFF79CF894F82C1091
:104A70000120884011490968084310490860E16A2B
:104A800001EB81010E4A02EB8100211DFFF7EEF8D8
:104A900004E004F118010B48FFF7E8F80A49E06A5E
:104AA0000968C96A884204D90125012007490860BC
:104AB00000E00025284670BDFC000020DC0000203E
:104AC000740F00201C120020C4000020E800002009
:104AD0002DE9F04105460F4647F000402860EC689C
:104AE0002846FFF75FF8201DFFF75CF894F82C10BC
:104AF000012088400E49096808430D490860E16AB1
:104B000001EB81010B4A02EB8100211DFFF7AEF89A
:104B10000949E06A0968C96A884204D90126012066
:104B20000649086000E000263046BDE8F08100003C
:104B3000DC000020740F0020C4000020E8000020EA
:104B400070B500240026FFF79DF82E480068401E2F
:104B50002C4908600846006800284FD12A480068A0
:104B600000284BD024E02948C068C46804F118002C
:104B7000FFF718F8201DFFF715F894F82C10012006
:104B8000884023490968084321490860E16A01EB2C
:104B90008101204A02EB8100211DFFF767F81E49C1
:104BA000E06A0968C96A884202D301201B4908608B
:104BB0001648006808B9012000E000200028D2D083
:104BC0000CB1FEF739FE1648056865B100BFFFF766
:104BD0006FFE10B10120114908606D1E002DF6D145
:104BE00000200F4908600D48006838B101263007E1
:104BF0000C490860BFF34F8FBFF36F8FFFF754F876
:104C0000304670BDFC000020D40000201C120020A3
:104C1000DC000020740F0020C4000020E800002009
:104C2000E400002004ED00E010B586B00024FEF79B
:104C3000C5FA10480068D0B100200590049003AA7E
:104C400004A905A8FEF7DCFF1F22DDE904100023FC
:104C5000CDE90021029008A10948039AFFF7EAFD77
:104C6000084908600846006800B1012400BF2046DA
:104C700006B010BD08010020546D72205376630009
:104C8000513900080C0100202DE9FF4705460C466C
:104C900016461F46DDF830804FF0000914480068C2
:104CA00010B3009401960295062C15DAFFF7EAFD81
:104CB000022808D10023424669460D480068FFF7E4
:104CC00027FC814610E000231A4669460848006820
:104CD000FFF71EFC814607E000233A466946044878
:104CE0000068FFF7B1FC8146484604B0BDE8F08794
:104CF00008010020144D00080000002034010000CD
:104D0000D40800082C4D000834010020444A00005B
:104D1000FC2D0008412D01020304040009FF0607D1
:0C4D2000080902040608111AAA01011C6F
:0400000508000131BD
:00000001FF
